:020000040002F8
:10300000487800204D350200553502005735020042
:10301000593502005B3502005D35020000000000FA
:103020000000000000000000000000005F3502000A
:1030300061350200000000006335020065350200C2
:103040000D47020067350200FD690200495E02007B
:103050006735020067350200313E0200BD5A0200AA
:10306000D569020067350200673502006735020046
:1030700067350200673502006735020067350200D8
:1030800067350200995A0200673502006735020071
:10309000955E020067350200995E02006735020006
:1030A0006735020067350200E969020067350200F2
:1030B00067350200673502000000000000000000D4
:1030C0006735020067350200673502006735020088
:1030D0006735020067350200673502000000000016
:1030E00000000000000000000000000000000000E0
:1030F00000000000000000000000000000000000D0
:1031000000000000000000000000000000000000BF
:1031100000000000000000000000000000000000AF
:10312000000000000000000000000000000000009F
:10313000000000000000000000000000000000008F
:10314000000000000000000000000000000000007F
:10315000000000000000000000000000000000006F
:10316000000000000000000000000000000000005F
:10317000000000000000000000000000000000004F
:10318000000000000000000000000000000000003F
:10319000000000000000000000000000000000002F
:1031A000000000000000000000000000000000001F
:1031B000000000000000000000000000000000000F
:1031C00000000000000000000000000000000000FF
:1031D00000000000000000000000000000000000EF
:1031E00000000000000000000000000000000000DF
:1031F00000000000000000000000000000000000CF
:10320000DFF80CD000F078FD0048004781D20200C2
:103210004878002030B4044654E8000F0D4644E8D6
:103220000053002BF8D1156030BC704730B4044611
:1032300054E8000F40EA010544E80053002BF7D1A1
:10324000156030BC704730B4044654E8000F00EA03
:10325000010544E80053002BF7D1156030BC7047DE
:1032600030B4044654E8000F80EA010544E80053F6
:10327000002BF7D1156030BC704730B4044654E8D9
:10328000000F00EB010544E80053002BF7D1156057
:1032900030BC704730B4044654E8000FA0EB010581
:1032A00044E80053002BF7D1156030BC7047000094
:1032B00030B450E8012F93B2C48923448489A342D7
:1032C00028BF1B1B0489A34202BFBFF32F8F00201E
:1032D00007E0C3EA020340E80134002CE9D14FF0D3
:1032E00001000A6030BC704750E8012FC2EA024278
:1032F00040E801210029F7D1704730B450E8022F8F
:103300001FFAA2F3C488A34202BFBFF32F8F00208D
:103310000DE0C48923448489A34228BF1B1BC2EA51
:10332000034340E80234002CE8D14FF001000A606A
:1033300030BC704750E8022FC2EA224240E8022126
:103340000029F7D17047034653E8022FD988B2EB22
:10335000324F4FF0000017BF92B241EA014142EAFA
:10336000014104E05A68B2EB324F08BF012043E844
:103370000212002AE8D1704730B4044654E8000F26
:103380000D4644E80053002BF8D1156030BC70475F
:1033900030B4044654E8000F40EA010544E8005305
:1033A000002BF7D1156030BC704730B4044654E8A8
:1033B000000F00EA010544E80053002BF7D1156027
:1033C00030BC704730B4044654E8000F80EA010571
:1033D00044E80053002BF7D1156030BC704730B47F
:1033E000044654E8000F00EB010544E80053002BAD
:1033F000F7D1156030BC704730B4044654E8000F74
:10340000A0EB010544E80053002BF7D1156030BC58
:103410007047000030B4044654E8000F0D4644E8FD
:103420000053002BF8D1156030BC704730B404460F
:1034300054E8000F40EA010544E80053002BF7D19F
:10344000156030BC704730B4044654E8000F00EA01
:10345000010544E80053002BF7D1156030BC7047DC
:1034600030B4044654E8000F80EA010544E80053F4
:10347000002BF7D1156030BC704730B4044654E8D7
:10348000000F00EB010544E80053002BF7D1156055
:1034900030BC704730B4044654E8000FA0EB01057F
:1034A00044E80053002BF7D1156030BC7047000092
:1034B00030B4044654E8000F0D4644E80053002B96
:1034C000F8D1156030BC704730B4044654E8000FA2
:1034D00040EA010544E80053002BF7D1156030BCE9
:1034E000704730B4044654E8000F00EA010544E890
:1034F0000053002BF7D1156030BC704730B4044640
:1035000054E8000F80EA010544E80053002BF7D18E
:10351000156030BC704730B4044654E8000F00EB2F
:10352000010544E80053002BF7D1156030BC70470B
:1035300030B4044654E8000FA0EB010544E8005302
:10354000002BF7D1156030BC70470000064880475B
:1035500006480047FEE7FEE7FEE7FEE7FEE7FEE778
:10356000FEE7FEE7FEE7FEE7A56602000132020085
:103570002DE9F05F0546002092469B4688460646A8
:10358000814640241BE0284641464746224600F03B
:1035900094FA53465A46C01A914110D31146184620
:1035A000224600F07BFA2D1A67EB01084F462246AF
:1035B0000120002100F072FA17EB00094E41201E95
:1035C000A4F10104DFDC484631462A464346BDE803
:1035D000F09F0000004870474C3D030040EA0103A3
:1035E0009B0703D009E008C9121F08C0042AFAD2B9
:1035F00003E011F8013B00F8013B521EF9D270477D
:10360000D2B201E000F8012B491EFBD27047002224
:10361000F6E710B513460A4604461946FFF7F0FFD1
:10362000204610BD10B5044604E00B7800F8013BBD
:1036300003B1491C521EF8D2204610BD421C10F89E
:10364000011B0029FBD1801A704730B504460020C9
:10365000034600E05B1C934203D2E05CCD5C401B60
:10366000F8D030BD10B5044600E0401C0378002BB4
:10367000FBD100E0401C521E04D311F8013B037043
:10368000002BF7D100210170204610BD034611F830
:10369000012B00F8012B002AF9D1184670472DE9BB
:1036A000FE4F804681EA0300C00F0C46009021F0D7
:1036B000004123F00045B8EB0200A94105D2404685
:1036C000214690461C460B46024623F0004010431C
:1036D00047D0270DC7F30A00C3F30A510290401ADE
:1036E000019040286BDAC3F3130040F4801B00986C
:1036F000924620B10023D2EB030A63EB0B0B019837
:103700005946C0F14002504600F0C8F906460D4641
:1037100050465946019A00F0E0F910EB080061416B
:10372000002487EA115284EAE7731A4340D0009AD2
:1037300062B3019A012A4FEA075215DC001B61EBC4
:1037400002014FF0004202EA0752CDE90042001C9C
:1037500041F5801132462B4600F017FA03B0BDE860
:10376000F08F40462146F9E7001B61EB0201001C87
:1037700041F5801300185B412018A2F5001747EBB4
:10378000030140EAD570B6196D4111E06D084FEAAA
:10379000360645EAC0754FEA0752001B61EB02018D
:1037A000001C41F5801149084FEA300000195141D1
:1037B00032462B4603B0BDE8F04F00F0D7B9009871
:1037C000012240000023D0EB020263EBE07300987B
:1037D00021464FEAE074B8EB000061EB0401E9E731
:1037E00083F000435BE781F0004158E72DE9FE4F8D
:1037F00081EA030404F0004421F0004100944FF0FA
:10380000000B23F0004350EA01045ED052EA0304A7
:103810005BD0C3F30A54C1F30A552C44A4F2F33429
:103820000194A0FB0254C1F3130141F48011C3F3CE
:10383000130343F4801301FB024400FB034E840A8C
:10384000970A44EA815447EA8357A4FB0768029524
:103850008D0A05FB07854FEA932C04FB0C542705C2
:10386000029D4FEA065847EA1637B5EB08056EEB9E
:10387000070C870E920E47EA811742EA8312A7FBD4
:103880000201B6EB0B0164EB00042B0D43EA0C3391
:103890005E1844EB1C50DA465146E7FB0201C5F3C3
:1038A00013044FEA0B3343EA14534FEA0432019CEA
:1038B00043EA0603A4F10C040294009CCDE900B491
:1038C00000F063F903B0BDE8F08F00200146F9E78E
:1038D0002DE9F04D81EA030404F0004B21F000458E
:1038E00014464FF0000A23F0004150EA050220D0B0
:1038F00054EA01021DD0C5F30A570246C5F313036B
:10390000C1F31300C1F30A5640F4801543F4801349
:10391000A7EB0608101BD64608F2FD3873EB05002E
:1039200002D308F1010801E092185B41B8F1000FE1
:1039300003DA00200146BDE8F08D00204FF480112D
:10394000064684460EE0171B73EB050705D3121BD2
:1039500063EB050306434CEA010C49084FEA3000CB
:1039600092185B4150EA0107EDD152EA030012D0F0
:1039700082EA040083EA0501084305D0101BAB412D
:1039800006D20122002306E000224FF0004302E0AD
:103990006FF0010253101AEB06004CEB085110EBCC
:1039A0000A0041EB0B01BDE8F04D00F0DFB80EB5A9
:1039B000C10F80EAE0700844CA07002140F2334397
:1039C0008DE80E000A460B4600F0DFF803B000BD9C
:1039D00070B5C1F30A5201F000450024C1F3130190
:1039E00040F2FF3341F480119A4201DA002070BDA9
:1039F00040F233439A42A2F2334203DC524200F0D7
:103A00005CF800E090402C43F1D0404270BD00F0E3
:103A1000004230F000400AD0C10D01F56071C0F3E2
:103A2000160042EA0151C2084007114370470020C6
:103A30000146704730B5041E71F1000404DB4FF0FD
:103A40000044404264EB0101141E73F1000405DBE5
:103A50001C464FF00043524263EB0403994208BFF7
:103A6000904230BD01F0004330B421F0004150EAF3
:103A7000010206D00A0DA2F56072C1F31301002AFB
:103A800002DC30BC00207047440F44EAC104C1008E
:103A9000E01830BC00EBC25000F031B8202A04DB43
:103AA000203A00FA02F1002070479140C2F1200351
:103AB00020FA03F3194390407047202A04DB203A90
:103AC00021FA02F00021704721FA02F3D040C2F13E
:103AD00020029140084319467047202A06DBCB1785
:103AE000203A41FA02F043EAE07306E041FA02F3B9
:103AF000D040C2F120029140084319467047002986
:103B0000A8BF7047401C490008BF20F00100704763
:103B100010B4B0FA80FC00FA0CF050EA010404BFC3
:103B200010BC704749B1CCF1200421FA04F411FA19
:103B30000CF118BF012121430843A3EB0C01CB1D5D
:103B40004FEA00614FEA102042BF002010BC7047CE
:103B500000EBC35010440029A4BF10BC7047401CA8
:103B6000490008BF20F0010010BC704710B5141EBA
:103B700073F1000408DA401C41F1000192185B4126
:103B80001A4301D120F0010010BD2DE9F04D9246FD
:103B90009B4611B1B1FA81F202E0B0FA80F2203214
:103BA0009046FFF77BFF04460F4640EA0A0041EAD1
:103BB0000B0153465A46084313D0114653EA0100FD
:103BC00019D0C8F140025046FFF777FF05460E4670
:103BD000504659464246FFF761FF084305D0012091
:103BE00004E020463946BDE8F08D0020054346EA52
:103BF000E0762C4337430A986305E40AA0EB0800FB
:103C00000022FD0A44EA47540A3002D5002001464A
:103C1000E9E7010510196941DDE908450019694125
:103C2000BDE8F04DA2E770B521F0004303430CD08E
:103C3000C1F30A550024D5EB040564EB0403D61741
:103C4000AD1AB34102DB0020014670BD201841EBE4
:103C5000025170BD2DE9F04D00231A461B1A8A410E
:103C600003DB00200146BDE8F08DC1F30A52C1F329
:103C7000130141F480154FF0000BD10702D1001859
:103C80006D41521E0027044640F2FF11384601EBF9
:103C9000620A3E468046024600204FF48011FFF73C
:103CA0000CFFC2197141BB1846EB0100B4EB030CC9
:103CB00075EB000C04D3E41A65EB000517460E46BD
:103CC000241908F101006D4180463428E3DDF9191B
:103CD00046EB0600091BA84103D24FF0FF32134602
:103CE00001E0002213461BEB070046EB0A51BDE83A
:103CF000F04DFFF73BBF0000064C074D06E0E068C3
:103D000040F0010394E8070098471034AC42F6D322
:103D1000FFF77AFA204603004046030070B58C187E
:103D200010F8015B15F0070301D110F8013B2A11CF
:103D300006D110F8012B03E010F8016B01F8016BBC
:103D40005B1EF9D12B0705D40023521E0DD401F8B8
:103D5000013BFAE710F8013BCB1A921C03E013F881
:103D6000015B01F8015B521EF9D5A142D8D30020B6
:103D700070BD242291FBF2F302FB131310B5002255
:103D8000815C3A29194413D2532901DD24391EE0FC
:103D9000A1F13A04192C01D8273118E0162901DACB
:103DA000243114E0A1F116041A2C10D24B310EE08C
:103DB0008429EBDCA1F17B04092C01D84B3906E006
:103DC0005729EDDBA1F157040A2C00D22739815481
:103DD000521C0C2AD4DB10BD10B502200AF016FFCD
:103DE0004FF0A040D0F8041504228A43C0F80825FB
:103DF00001F00401C0F80C1510BD000010B502F070
:103E0000E3F909490120002208708881074840F63B
:103E10003D21406904F05EFC002803D0BDE810405D
:103E200004F00EBC10BD0000F02000206836030036
:103E30002DE9F04700268CB0DFF86091B0464FF4D2
:103E4000807501243746069628460AF045FF38B1AA
:103E5000D9F80403204203D028460AF033FF264352
:103E60002D1D64007F1CADB2082FEDD34FF4BE743E
:103E700020460AF031FF48B120460AF023FF46F001
:103E8000004606AA012100200AF008FF444D16F062
:103E9000FF0F15D00127002437420DD009EB840114
:103EA000D1F81005D1F81015C0F3042055F82420DE
:103EB000C1F3014102B190477F00641C082CEBD391
:103EC000002E67DA4FF0FF30CDE908800026344637
:103ED000281910F8507F90F9000027F0C008401C06
:103EE00044D009A9404609F07DFD58B34FEA97191F
:103EF000404606F05FFF55F820701FB1B9F1030F7F
:103F000003D00FE0B9F1030F30D108A84FEAD8026F
:103F100008F00703815C4FF0010C0CFA03FC41EA46
:103F20000C0181544FF0A04101EB8800D0F800074C
:103F300006A9C0F3014A404609F054FD18B1BAF190
:103F4000020F03D012E0BAF1030F0FD1B9F1030F42
:103F500008D1BAF1020F1BD0022140460AF074FECC
:103F6000761CF6B217B149464046B847641C042C8B
:103F7000AED3002E0ED06A46012100200AF08EFE3C
:103F800006990098884205D00690089809909DE708
:103F90000321E2E70CB0BDE8F087000000600040BC
:103FA000E02C002030B564202DED028B87B08DF819
:103FB0001400DFED4D8A9FED4D8A4D4D686904F088
:103FC000CDFB08B104F03CFB01F0FAFF494C02E0E4
:103FD000012009F0D4FD60780028F9D0002060703D
:103FE0002078012801D0022801D102F0CDF905A9DD
:103FF000684600F0E7F82078012801D002280ED1A9
:10400000A07903280BD269463B4805F017FC082825
:104010000AD008B104F014FBA079401CA0712078EC
:1040200040B1022806D03AE034A1002001F036FE6B
:1040300000F0A4F8206978EEC81A01289DF8140051
:104040009FED320A00EE900AF8EE600A70EEC80AA0
:1040500080EEA11A21EE000A18D110EE100A2C49A8
:10406000884202DD9FED2B0A10E0D4ED050AB4EE84
:10407000E00AF1EE10FA02DDB0EE600A06E010EEA2
:10408000100AB0F17E5F01DAB3EE040A1A4884ED3B
:10409000050A32218DF81410183805F073FA2178CA
:1040A0000220012902D0022906D00DE0A189B1F534
:1040B000167F09D1207007E0A189A1F50072593A55
:1040C00002D101212170A1812070002240F63D2102
:1040D000686904F0FFFA002801D004F0B1FA07B0D3
:1040E000BDEC028B30BD00000000484300008C4254
:1040F00068360300F02000209428002070726F635F
:10410000657373206572726F72200A000000C842E6
:104110000000C8420000984200F01F0201219140B7
:104120004009800000F1E020C0F88012704700F0E4
:104130001F02012191404009800000F1E020C0F8F9
:104140000011704700F01F020121914040098000DA
:1041500000F1E020C0F8001270474907090E00285E
:1041600006DA00F00F0000F1E02080F8141D70471F
:1041700000F1E02080F8001470470000BFF34F8F7B
:1041800005480168054A01F4E06111430160BFF38D
:104190004F8F00BFFDE700000CED00E00400FA05C2
:1041A000BFF34F8F05480168054A01F4E0611143F0
:1041B0000160BFF34F8F00BFFDE700000CED00E092
:1041C0000400FA052DE9F04F04462DED0E8B00207A
:1041D0008FB089460546FE4BFE4905271E7826B15D
:1041E000012E13D0022E1FD042E0002293F802C00D
:1041F00007E000BF31F91280B8F1000F00DB404446
:10420000521C6245F6DB90FBF7F02AE0002293F89F
:1042100002C006E031F91280B8F1000F00DB45441E
:10422000521C6245F6DB1AE05FF0000231F91270B1
:10423000002F00DB3844521C032AF7DB032790FBD6
:10424000F7F03A4693F802C007E000BF31F9128058
:10425000B8F1000F00DB4544521C6245F6DB95FBCC
:10426000F7F50EB1022E03D189F80000002E7DD0A3
:10427000D7498E6A761C8E62CA6A1044C86290FB67
:10428000F6F09FEDD58B0190642096FBF0F100FBDA
:104290001167B0EE489AF0EE689A2846FFF787FB60
:1042A000DFF83C83642E08EBC702C2E9000146DD5B
:1042B0005FF0000608EBC60053EC192B90ED000BE5
:1042C00051EC100BFFF7EBF941EC190B761C652E46
:1042D000F0DB9FEDC40B51EC190B53EC102BFFF7E7
:1042E000F7FA41EC190B002608EBC60053EC192B2A
:1042F00090ED000B51EC100BFFF772FA41EC100B34
:1043000053EC102BFFF772FA53EC182BFFF7C7F999
:1043100041EC180B761C642EE6DB9FEDB40B51ECE0
:10432000180B53EC102BFFF7D3FA41EC100B03F0F2
:10433000F3FC51EC100BFFF74BFBA5490862A548B5
:104340000C383F26B0F90090B0F90280B0F9047043
:10435000B0F906100091B0F908B0B0F90AA0A0F5C4
:104360009160C06800B97F26994800E0A7E1026A21
:104370000A2A05DA46F080069EA1002001F08EFC94
:104380003246A2A1002001F089FC92484FEA19238D
:10439000163000EE109A90F9001090F9012090F973
:1043A0000200237084F801904FEA1823A37084F868
:1043B00003803B0A23716771009BA371884B84F8CB
:1043C00007B0283B84F808A01B7B6372804BB8EED3
:1043D000C00A93F82030A372019B1B0AE372019B71
:1043E00023730B0A6373A173110AE1732274010A28
:1043F0006174A074E674DFED8B0A20EE201A9FED45
:104400008A0A009821EE009A01EE108AB8EEC11ACD
:1044100021EE201A61EE008A01EE107AB8EEC11A80
:1044200061EE200A20EE808A00EE100AF8EEC00A43
:104430009FED7E0A80EE801ADFED7D0A61EE20DAC4
:1044400001EE10BAF8EEC11A81EE801A21EE20DAE0
:1044500001EE10AAB8EEC11AC1EE001A29EE090A3F
:1044600008EEA80A08EE080A10EE100A61EEA0AAEB
:10447000FFF7CDFA41EC100B03F04EFC51EC100BA2
:10448000FFF7F0FA0EEE100A89EE0E0A10EE100A8F
:10449000FFF7BDFA41EC100B02F06AFC9FED65BB23
:1044A00051EC100B53EC1B2BFFF712FA9FED63CB73
:1044B00053EC1C2BFFF79AF9FFF7D4FA88EE8E0A1B
:1044C0000AEE100A10EE100AFFF7A1FA41EC100BE9
:1044D00002F04EFC53EC1B2B51EC100BFFF7F8F9DC
:1044E00053EC1C2BFFF782F9FFF7BCFA88EE0E0A9B
:1044F00009EE900A10EE100AFFF789FA41EC100B52
:1045000002F036FC53EC1B2B51EC100BFFF7E0F9DB
:1045100053EC1C2BFFF76AF9FFF7A4FABDEEC90AAA
:1045200003EE100A10EE103A00EE103AB8EEC00A90
:1045300039EE400ADFED430A20EE200ABDEEC00A44
:1045400010EE106A002E00DA7642BDEEE81AB8EEE0
:10455000C10A38EEC00A20EE200ABDEEC00A10EEF5
:10456000102A002A00DA5242FDEEC81AB8EEE10A1B
:1045700038EE400A20EE200ABDEEC00A10EE104AC6
:10458000002C00DA6442BDEEED2AB8EEC20A3DEE20
:10459000C00A20EE200ABDEEC00A10EE101A002953
:1045A00000DA4942FDEECD2AB8EEE20A3DEE400ABD
:1045B00020EE200ABDEEC00A10EE107A002F00DABD
:1045C0007F42BDEEEA0AF8EEC03A7AEEE33A3BE00B
:1045D000F0200020DC280020000000000000000087
:1045E000702400200000000000005940000000007E
:1045F00000C05840617665726167655F616E676C87
:10460000655F6572726F723D25640A0043616C6973
:1046100062726174696F6E5F666C61673D25640AE2
:104620000000000000008038A1E71C416F128341A8
:1046300035FA8E3C1F85EB51B81E09400000000082
:104640000080664000007A4463EEA00AFDEEE00AB6
:1046500010EE900A002800DA4042A5F2625504EEFE
:10466000105A9FED195AFDEECA0AF8EEC44AFDEE43
:10467000E93A0A90BDEEC33A84EE854ACDED0B0AC5
:10468000CDED0C3A8DED0D3A0691DFED104ACDEDF2
:10469000072A08978DED090A0292CDED031A0494BA
:1046A0008DED052A00968DED011A09A1002024EE5A
:1046B000244ABDEEC40A10EE102A01F0EFFA0FB042
:1046C000BDEC0E8BBDE8F08F004030440000B442DA
:1046D000202564202C25642E25642C2025642E257D
:1046E000642C2025642E25642C2025642E2564202E
:1046F0002C25642E2564202C2025642E2564202C56
:104700002564202C25642C2025640A0010B509F0AE
:1047100001FBBDE8104009F075BC000038B511A1DF
:10472000002001F0BBFA114C00224FF48031A06848
:1047300003F0D0FF08B103F083FF1E2009F030FC26
:10474000606A009001208DF80100094A69461E2028
:1047500009F088FB08B103F073FF01211E2009F066
:104760002FFB38BD7072657373210A006836030031
:1047700075470200F8B515A1002001F08FFA164C1C
:10478000207918B915A1002001F088FA164DA86803
:1047900003F0E4FF08B103F053FF002626711E204A
:1047A00009F0FEFB286A009001208DF801000F4AF5
:1047B00069461E2009F056FB08B103F041FF0121B4
:1047C0001E2009F0FDFAA661F8BD000072656C6557
:1047D000617365210A000000F020002074727920C6
:1047E000616761696E210A00683603001D47020097
:1047F00070B50DA1002001F051FA0F4D01240620E3
:104800002C710AF003FA4FF0A0414020C1F80C05CA
:10481000286918B100202861FFF7B0FC2C61BDE8C1
:104820007040002003F040BE506F776572206F66C5
:104830006621200A00000000F0200020164930B454
:104840000A68531C092824D2DFE800F005080B0E83
:104850001114171A1D000B6010A116E00B601AA1AD
:1048600013E00B6024A110E00B6030A10DE00B60A1
:1048700039A10AE00B6043A107E00B604FA104E0FF
:104880000B605CA101E00B6068A130BC002001F06E
:1048900005BA0B6073A1F8E7202100200A256420E7
:1048A0002A2A2A6F6E5F6164765F657674212A2AF0
:1048B0002A203A20424C455F4144565F4556545F9A
:1048C00049444C45200A00000A2564202A2A2A6F00
:1048D0006E5F6164765F657674212A2A2A203A2009
:1048E000424C455F4144565F4556545F44495245EA
:1048F00043544544200A00000A2564202A2A2A6FCE
:104900006E5F6164765F657674212A2A2A203A20D8
:10491000424C455F4144565F4556545F44495245B9
:10492000435445445F534C4F57200A000A256420E6
:104930002A2A2A6F6E5F6164765F657674212A2A5F
:104940002A203A20424C455F4144565F4556545F09
:1049500046415354200A00000A2564202A2A2A6F5F
:104960006E5F6164765F657674212A2A2A203A2078
:10497000424C455F4144565F4556545F534C4F5738
:10498000200A00000A2564202A2A2A6F6E5F6164CB
:10499000765F657674212A2A2A203A20424C455FA8
:1049A0004144565F4556545F464153545F5748490A
:1049B00054454C495354200A000000000A25642045
:1049C0002A2A2A6F6E5F6164765F657674212A2ACF
:1049D0002A203A20424C455F4144565F4556545F79
:1049E000534C4F575F57484954454C495354200A3C
:1049F000000000000A2564202A2A2A6F6E5F616485
:104A0000765F657674212A2A2A203A20424C455F37
:104A10004144565F4556545F57484954454C4953A5
:104A2000545F52455155455354200A000A256420CD
:104A30002A2A2A6F6E5F6164765F657674212A2A5E
:104A40002A203A20424C455F4144565F4556545F08
:104A5000504545525F414444525F5245515545537C
:104A600054200A000A2564202A2A2A6F6E5F616496
:104A7000765F657674212A2A2A203A20666F72674B
:104A800065742068616E646C65200A0030B4038828
:104A90003C48103B01680A46491C472B5AD2DFE8C4
:104AA00003F024272A2D303336393C3F4245484B0A
:104AB0004E515457706F6E5959595959595959593E
:104AC00059596D6C6B6A69686766656463626159A0
:104AD0005959595959595959595959595959595946
:104AE0005959605F5E5D5C5B5A00016026A122E25D
:104AF000016033A1FBE701603FA11CE201604EA110
:104B000019E201605CA116E201606AA113E2016092
:104B100077A110E2016084A10DE2016091A10AE297
:104B20000160A0A107E20160ACA104E20160BAA1AA
:104B300001E20160C5A1FEE10160D2A1FBE10160DB
:104B4000DEA1F8E10160EB49F5E10160EAA1F2E1E3
:104B50000160EFE12EE22EE22EE229E225E221E2DF
:104B60001DE219E215E211E20DE209E205E201E2BD
:104B7000FDE1F9E1F5E1F1E1EDE1E9E1E5E1E1E1B5
:104B8000DDE1D9E1202100200A2564202A2A2A62B9
:104B90006C655F6576745F68616E646C6572212A0E
:104BA0002A2A203A20424C455F4741505F455654DF
:104BB0005F434F4E4E4543544544200A00000000D9
:104BC0000A2564202A2A2A626C655F6576745F680C
:104BD000616E646C6572212A2A2A203A20424C4573
:104BE0005F4741505F4556545F444953434F4E4ED3
:104BF0004543544544200A000A2564202A2A2A6293
:104C00006C655F6576745F68616E646C6572212A9D
:104C10002A2A203A20424C455F4741505F4556546E
:104C20005F434F4E4E5F504152414D5F555044419E
:104C30005445200A000000000A2564202A2A2A621E
:104C40006C655F6576745F68616E646C6572212A5D
:104C50002A2A203A20424C455F4741505F4556542E
:104C60005F5345435F504152414D535F524551554B
:104C7000455354200A0000000A2564202A2A2A628B
:104C80006C655F6576745F68616E646C6572212A1D
:104C90002A2A203A20424C455F4741505F455654EE
:104CA0005F5345435F494E464F5F5245515545530B
:104CB00054200A000A2564202A2A2A626C655F654E
:104CC00076745F68616E646C6572212A2A2A203AC4
:104CD00020424C455F4741505F4556545F50415319
:104CE000534B45595F444953504C4159200A0000E9
:104CF0000A2564202A2A2A626C655F6576745F68DB
:104D0000616E646C6572212A2A2A203A20424C4541
:104D10005F4741505F4556545F4B45595F50524580
:104D200053534544200A00000A2564202A2A2A6297
:104D30006C655F6576745F68616E646C6572212A6C
:104D40002A2A203A20424C455F4741505F4556543D
:104D50005F415554485F4B45595F52455155455346
:104D600054200A000A2564202A2A2A626C655F659D
:104D700076745F68616E646C6572212A2A2A203A13
:104D800020424C455F4741505F4556545F4C455368
:104D9000435F44484B45595F524551554553542054
:104DA0000A0000000A2564202A2A2A626C655F65D1
:104DB00076745F68616E646C6572212A2A2A203AD3
:104DC00020424C455F4741505F4556545F41555422
:104DD000485F535441545553200A00000A2564206B
:104DE0002A2A2A626C655F6576745F68616E646CFE
:104DF0006572212A2A2A203A20424C455F474150B9
:104E00005F4556545F434F4E4E5F5345435F555089
:104E100044415445200A00000A2564202A2A2A62B7
:104E20006C655F6576745F68616E646C6572212A7B
:104E30002A2A203A20424C455F4741505F4556544C
:104E40005F54494D454F5554200A00000A256420FF
:104E50002A2A2A626C655F6576745F68616E646C8D
:104E60006572212A2A2A203A20424C455F47415048
:104E70005F4556545F525353495F4348414E47453F
:104E800044200A000A2564202A2A2A626C655F658C
:104E900076745F68616E646C6572212A2A2A203AF2
:104EA00020424C455F4741505F4556545F41445650
:104EB0005F5245504F5254200A0000000A256420DA
:104EC0002A2A2A626C655F6576745F68616E646C1D
:104ED0006572212A2A2A203A20424C455F474150D8
:104EE0005F4556545F5345435F52455155455354B2
:104EF000200A0000B43E03000A2564202A2A2A6200
:104F00006C655F6576745F68616E646C6572212A9A
:104F10002A2A203A20424C455F4741505F4556546B
:104F20005F5343414E5F5245515F5245504F52547B
:104F3000200A000021A148E2016030A145E20160A1
:104F40003C4942E201603CA13FE201604AA13CE2EF
:104F5000016059A139E2016066A136E2016074A1E5
:104F600033E2016081A130E2016090492DE20160ED
:104F70008FA12AE201609CA127E20160AAA124E29C
:104F80000160B7A121E20160C2A11EE20160D1A1CE
:104F90001BE20160DD4918E20160DDA115E201605C
:104FA000E84912E20160E8A10FE20160F6A10CE21B
:104FB000016003E20DE206E202E200000A2564203D
:104FC0002A2A2A626C655F6576745F68616E646C1C
:104FD0006572212A2A2A203A20424C455F474150D7
:104FE0005F4556545F5048595F5550444154455FA2
:104FF00052455155455354200A0000000A256420AB
:105000002A2A2A626C655F6576745F68616E646CDB
:105010006572212A2A2A203A20424C455F47415096
:105020005F4556545F5048595F55504441544520A0
:105030000A0000006C3E03000A2564202A2A2A6226
:105040006C655F6576745F68616E646C6572212A59
:105050002A2A203A20424C455F4741505F4556542A
:105060005F444154415F4C454E4754485F5550445E
:10507000415445200A0000000A2564202A2A2A6299
:105080006C655F6576745F68616E646C6572212A19
:105090002A2A203A20424C455F47415454435F45F9
:1050A00056545F5052494D5F535256435F444953E3
:1050B000435F525350200A000A2564202A2A2A629C
:1050C0006C655F6576745F68616E646C6572212AD9
:1050D0002A2A203A20424C455F47415454435F45B9
:1050E00056545F52454C5F444953435F52535020DE
:1050F0000A0000000A2564202A2A2A626C655F657E
:1051000076745F68616E646C6572212A2A2A203A7F
:1051100020424C455F47415454435F4556545F43DA
:105120004841525F444953435F525350200A0000A4
:105130000A2564202A2A2A626C655F6576745F6896
:10514000616E646C6572212A2A2A203A20424C45FD
:105150005F47415454435F4556545F444553435F52
:10516000444953435F525350200A00000A256420EB
:105170002A2A2A626C655F6576745F68616E646C6A
:105180006572212A2A2A203A20424C455F47415421
:1051900054435F4556545F415454525F494E464F05
:1051A0005F444953435F525350200A00243E03009A
:1051B0000A2564202A2A2A626C655F6576745F6816
:1051C000616E646C6572212A2A2A203A20424C457D
:1051D0005F47415454435F4556545F524541445FD5
:1051E000525350200A0000000A2564202A2A2A620D
:1051F0006C655F6576745F68616E646C6572212AA8
:105200002A2A203A20424C455F47415454435F4587
:1052100056545F434841525F56414C535F5245419B
:10522000445F525350200A000A2564202A2A2A6229
:105230006C655F6576745F68616E646C6572212A67
:105240002A2A203A20424C455F47415454435F4547
:1052500056545F57524954455F525350200A00003C
:105260000A2564202A2A2A626C655F6576745F6865
:10527000616E646C6572212A2A2A203A20424C45CC
:105280005F47415454435F4556545F485658200A7F
:10529000000000000A2564202A2A2A626C655F65E6
:1052A00076745F68616E646C6572212A2A2A203ADE
:1052B00020424C455F47415454435F4556545F4537
:1052C000584348414E47455F4D54555F5253502017
:1052D0000A0000000A2564202A2A2A626C655F659C
:1052E00076745F68616E646C6572212A2A2A203A9E
:1052F00020424C455F47415454435F4556545F54E8
:10530000494D454F5554200A00000000E03D030080
:105310000A2564202A2A2A626C655F6576745F68B4
:10532000616E646C6572212A2A2A203A20424C451B
:105330005F47415454535F4556545F575249544553
:10534000200A0000FC3E03000A2564202A2A2A6263
:105350006C655F6576745F68616E646C6572212A46
:105360002A2A203A20424C455F47415454535F4516
:1053700056545F5359535F415454525F4D495353F0
:10538000494E47200A0000000A2564202A2A2A6282
:105390006C655F6576745F68616E646C6572212A06
:1053A0002A2A203A20424C455F47415454535F45D6
:1053B00056545F485643200A0000000006A104E04E
:1053C0000160134901E0016012A130BC002000F02F
:1053D00065BC30BC704700000A2564202A2A2A6276
:1053E0006C655F6576745F68616E646C6572212AB6
:1053F0002A2A203A20424C455F47415454535F4586
:1054000056545F53435F434F4E4649524D200A0066
:10541000403F03000A2564202A2A2A626C655F65E2
:1054200076745F68616E646C6572212A2A2A203A5C
:1054300020424C455F47415454535F4556545F5496
:10544000494D454F5554200A0000000003780D488F
:1054500001680A46491C43B1012B09D0022B0AD02E
:10546000032B01600AD008A109E0016010A106E049
:1054700001601EA103E001602BA100E037A1002024
:1054800000F00CBC202100200A2564202A2A2A6F63
:105490006E5F6375735F657674212A2A2A203A202D
:1054A000666F726765742068616E646C65200A00BF
:1054B0000A2564202A2A2A6F6E5F6375735F6576FA
:1054C00074212A2A2A203A20424C455F4355535FD3
:1054D0004556545F4E4F54494649434154494F4EF7
:1054E0005F454E41424C4544200A00000A25642095
:1054F0002A2A2A6F6E5F6375735F657674212A2A84
:105500002A203A20424C455F4355535F4556545F2D
:105510004E4F54494649434154494F4E5F444953C5
:1055200041424C4544200A000A2564202A2A2A6F59
:105530006E5F6375735F657674212A2A2A203A208C
:10554000424C455F4355535F4556545F444953436E
:105550004F4E4E4543544544200A00000A2564201E
:105560002A2A2A6F6E5F6375735F657674212A2A13
:105570002A203A20424C455F4355535F4556545FBD
:10558000434F4E4E4543544544200A0030B40378FF
:10559000264801680A46491C142B46D2DFE803F06E
:1055A0000A0D101316191C1F2225282B2E313437F3
:1055B0003A3D404301601EA131E201602BA12EE281
:1055C000016037A12BE2016043A128E2016050A1F4
:1055D00025E201605DA122E201606BA11FE2016092
:1055E00076A11CE2016083A119E2016091A116E29B
:1055F0000160A0A113E20160ADA110E20160BAA1B7
:105600000DE20160C7A10AE20160D5A107E20160D5
:10561000E24904E20160E2A101E20160F049FEE139
:105620000160F0A1FBE10160F8E1FCE12021002034
:105630000A2564202A2A2A706D5F6576745F686186
:105640006E646C6572212A2A2A203A20504D5F45EB
:1056500056545F424F4E4445445F504545525F4368
:105660004F4E4E4543544544200A00000A2564200D
:105670002A2A2A706D5F6576745F68616E646C6556
:1056800072212A2A2A203A20504D5F4556545F4302
:105690004F4E4E5F5345435F5354415254200A00CE
:1056A0000A2564202A2A2A706D5F6576745F686116
:1056B0006E646C6572212A2A2A203A20504D5F457B
:1056C00056545F434F4E4E5F5345435F53554343DC
:1056D0004545444544200A000A2564202A2A2A70A8
:1056E0006D5F6576745F68616E646C6572212A2AED
:1056F0002A203A20504D5F4556545F434F4E4E5F2F
:105700005345435F4641494C4544200A0000000090
:105710000A2564202A2A2A706D5F6576745F6861A5
:105720006E646C6572212A2A2A203A20504D5F450A
:1057300056545F434F4E4E5F5345435F434F4E4673
:1057400049475F524551200A000000000A256420A5
:105750002A2A2A706D5F6576745F68616E646C6575
:1057600072212A2A2A203A20504D5F4556545F4321
:105770004F4E4E5F5345435F504152414D535F5230
:105780004551200A000000000A2564202A2A2A70B8
:105790006D5F6576745F68616E646C6572212A2A3C
:1057A0002A203A20504D5F4556545F53544F524182
:1057B00047455F46554C4C200A0000000A256420EE
:1057C0002A2A2A706D5F6576745F68616E646C6505
:1057D00072212A2A2A203A20504D5F4556545F45AF
:1057E00052524F525F554E45585045435445442000
:1057F0000A0000000A2564202A2A2A706D5F657657
:10580000745F68616E646C6572212A2A2A203A20CE
:10581000504D5F4556545F504545525F4441544199
:105820005F5550444154455F5355434345454445B6
:1058300044200A000A2564202A2A2A706D5F6576B2
:10584000745F68616E646C6572212A2A2A203A208E
:10585000504D5F4556545F504545525F4441544159
:105860005F5550444154455F4641494C4544200AE8
:10587000000000000A2564202A2A2A706D5F6576E0
:10588000745F68616E646C6572212A2A2A203A204E
:10589000504D5F4556545F504545525F44454C4519
:1058A00054455F535543434545444544200A000051
:1058B0000A2564202A2A2A706D5F6576745F686104
:1058C0006E646C6572212A2A2A203A20504D5F4569
:1058D00056545F504545525F44454C4554455F46DC
:1058E00041494C4544200A000A2564202A2A2A708E
:1058F0006D5F6576745F68616E646C6572212A2ADB
:105900002A203A20504D5F4556545F50454552532A
:105910005F44454C4554455F5355434345454445D5
:1059200044200A000A2564202A2A2A706D5F6576C1
:10593000745F68616E646C6572212A2A2A203A209D
:10594000504D5F4556545F50454552535F44454C5A
:105950004554455F4641494C4544200A000000003B
:105960000A2564202A2A2A706D5F6576745F686153
:105970006E646C6572212A2A2A203A20504D5F45B8
:1059800056545F4C4F43414C5F44425F4341434850
:10599000455F4150504C494544200A00583D0300A2
:1059A0000A2564202A2A2A706D5F6576745F686113
:1059B0006E646C6572212A2A2A203A20504D5F4578
:1059C00056545F534552564943455F4348414E47FD
:1059D00045445F494E445F53454E54200A00000041
:1059E0009C3D03000A2564202A2A2A706D5F657693
:1059F000745F68616E646C6572212A2A2A203A20DD
:105A0000504D5F4556545F534C4156455F53454397
:105A100055524954595F524551200A0003A130BCE8
:105A2000002000F03BB9016010A1F8E70A256420CE
:105A30002A2A2A706D5F6576745F68616E646C6592
:105A400072212A2A2A203A20504D5F4556545F463B
:105A50004C4153485F474152424147455F434F4C99
:105A60004C4543544544200A000000000A256420A8
:105A70002A2A2A706D5F6576745F68616E646C6552
:105A800072212A2A2A203A20666F7267657420687C
:105A9000616E646C65200A0007480021C0F840115F
:105AA000C0F84411C0F84811C0F84C11C0F80011FA
:105AB000C0F804110DF088B8001001402DE9FE4334
:105AC0004FF48278404609F017FD4C4F00254C4CAE
:105AD000012600B3404609F017FD94F82E0010B1DE
:105AE00094F82F10D1B18DF800506168019121898F
:105AF000ADF80810E26832B1218B618362602181C8
:105B0000E56010B102E0257400E03E60216868465F
:105B1000884784F82F5094F82E0060B34FF48077B4
:105B2000384609F0E9FC30B3384609F0EDFC628BE9
:105B300094F82D108A420AD9A2EB010080B260834A
:105B40002289A2EB0000626802EB400005E007D169
:105B5000E06828B184F82F60658309F087FC04E0D1
:105B60008A4202D184F82F606583404609F0CCFC5C
:105B70002248001D06604FF48877384609F0BCFCC7
:105B800048B1384609F0C0FC257402208DF80000A9
:105B90002168684688474FF48A77384609F0ACFC9C
:105BA00028B1384609F0B0FC2574BDE8FE834FF0FB
:105BB00000484FF48C7967691DE000BFB7FA87F0A1
:105BC00028FA00F109EB80058F43284609F094FC80
:105BD00088B1284609F098FCA5F58C75E8088DF881
:105BE000040045F38000401C8DF800608DF805002E
:105BF000216868468847002FE0D1D6E70070004052
:105C00007C2D0020F8B50D4B0646144618780D463D
:105C100008B900F001FF00208DF80000684602F08E
:105C2000ADFD22462946304600F00AF804469DF8AC
:105C3000000002F0C7FD2046F8BD0000BC35002082
:105C400070B50E46144900EB400001EBC005144648
:105C5000E86A183520B101280FD0022805D113E0D9
:105C6000284600F00DFFA04201D2002411E0224698
:105C70003146284601F02AF80BE0284600F000FFE4
:105C8000A042F4D20446F2E73146284600F0F1FF84
:105C90000446204670BD0000BC3500200FB408B596
:105CA00004A900916A46039900F003F801B05DF879
:105CB00014FB2DE9F04198B0064607A80290402059
:105CC0000025CDE90305CDE9055690460C4614F8AC
:105CD000011B002973D0252908D002A800F0AAFFD3
:105CE00005980028F3DA18B0BDE8F0810020012102
:105CF0002278232A1ED02B2A19D02D2A02D0302A0E
:105D000008D102E040F0010001E040F00200641C14
:105D10000029EDD100222178A1F130030A2B0CD209
:105D200002EB820201EB4202303A641CF3E740F0DE
:105D30000400ECE740F00800E9E70023CFB22E2F83
:105D40000BD114F8011FA1F130070A2F05D203EB84
:105D5000830301EB4303303BF3E76C290DD0682943
:105D60000BD0702954D00BDC252916D0582931D0FE
:105D700063290CD0642913D114E014F8011FECE757
:105D8000732934D075291BD0782909D122E0D8F89D
:105D90000000011DC8F80010017802A800F04AFFB9
:105DA000641C9DE7D8F800100F1DC8F80070096842
:105DB000CDE900200A2202A800F06EFEF0E733E0F1
:105DC000D8F800100F1DC8F800700968CDE9002050
:105DD0000A2208E0D8F800100F1DC8F80070096802
:105DE000CDE90020102202A800F0BAFED8E7D8F8CA
:105DF0000000011DC8F80010076817F8011B0029F2
:105E0000CED002A800F016FF05980028F5DAC7E703
:105E1000D8F80000011DC8F8001001680820CDE97D
:105E2000000503461022DEE7059800287FF75BAFE8
:105E3000049820B1024607A93046FFF7E3FEDDE9EA
:105E40000410084405904EE7F8B511480F4D04467C
:105E50004FF48C7109F04BFD002815D00026C4F8D2
:105E60001861D4F818010090A87F2C46FF2801D0B3
:105E700008F002FF66772672D4E9002101B004F130
:105E80000800BDE8F0401047F8BD0000582D002084
:105E9000003000400CF0E6BD09F0BEBC70B592B019
:105EA0003049002008F0AAF908B102F0C9FB2E48D9
:105EB00003AC0EC88DE80E000EC884E80E000EC8B4
:105EC00006AC84E80E000EC809AC84E80E000EC8CB
:105ED0000CAC84E80E0007C80FAB83E807006946E6
:105EE000002008F039F908B102F0AAFB03A901204B
:105EF00008F032F908B102F0A3FB06A9022008F06D
:105F00002BF908B102F09CFB09A9032008F024F941
:105F100008B102F095FB0CA9042008F01DF908B1A6
:105F200002F08EFB0FA9052008F016F908B102F067
:105F300087FB0E4DAC78A00007F0DAFA0646A97888
:105F400008F0B6F808B102F07BFB06EB4400A97834
:105F500008F0AEF808B102F073FB304606F014F812
:105F600012B070BD715F020020370300F0200020E6
:105F700070B50546007800281CD10F4C6868A178E0
:105F800008F096F808B102F05BFB0020A1780B4AFC
:105F900005E06B6833F8103022F81030401C88425E
:105FA000F7DBA089401CA08101206070BDE8704033
:105FB00000F00AB970BD0000F0200020DC280020AD
:105FC00010B5192008F022FE192008F04EFE134CDF
:105FD000E07850B9227805208AB1012A13D0022A2C
:105FE00015D00FA10020FFF759FE0120E07008F046
:105FF0008BF9002810D0BDE8104002F021BBA07042
:1060000000F082F8F1E7A07000F01CF8EDE7062040
:10601000A070FFF743FFE8E710BD0000F02000206C
:106020004552524F52203A2057726F6E6720696E68
:106030006974206D6F6465206E756D203D20256448
:106040000A00000070B590B02C49002008F0D6F886
:1060500008B102F0F5FA2A4A03AC07CA8DE8070036
:1060600027480C300EC884E80E000EC806AC84E841
:106070000E000EC809AC84E80E0007C80CAB83E81C
:1060800007006946002008F067F808B102F0D8FA66
:1060900003A9012008F060F808B102F0D1FA06A9BE
:1060A000022008F059F808B102F0CAFA09A9032041
:1060B00008F052F808B102F0C3FA0CA9042008F065
:1060C0004BF808B102F0BCFA0E4DAC78A00007F016
:1060D0000FFA0646A97807F0EBFF08B102F0B0FA14
:1060E00006EB4400A97807F0E3FF08B102F0A8FA34
:1060F000304605F049FF10B070BD0000715F02002E
:10610000E4360300F020002070B590B02B49002049
:1061100008F074F808B102F093FA294803AC0EC8ED
:106120008DE80E000EC884E80E000EC806AC84E8A8
:106130000E000EC809AC84E80E0007C80CAB83E85B
:1061400007006946002008F007F808B102F078FA65
:1061500003A9012008F000F808B102F071FA06A9BD
:10616000022007F0F9FF08B102F06AFA09A903203A
:1061700007F0F2FF08B102F063FA0CA9042007F05F
:10618000EBFF08B102F05CFA0E4DAC78A00007F00E
:10619000AFF90646A97807F08BFF08B102F050FA74
:1061A00006EB4400A97807F083FF08B102F048FA33
:1061B000304605F0E9FE10B070BD0000715F0200CE
:1061C000A8360300F020002010B5094CE078002824
:1061D0000CD008F0AFF807490220C1F8080380216D
:1061E0004FF0E0220020C2F88012E07010BD0000E5
:1061F000F02000200070004070B52DED048B92B0AF
:1062000009A86DDF9DF8270001AC9DF82A309DF8A4
:1062100029209DF8281084E80F009DF826000090A2
:106220009DF825303FA20D2105A800F071FD00204A
:1062300005AC2218215C53782354801C51700C2823
:10624000F7DB0020C0F10B01225C635C2354401C8F
:1062500062540628F6DB224639A10020FFF71EFD16
:106260000C20CDE90040002334A204210BA802F049
:1062700034FC0B98002800DA40423549002490FB9A
:10628000F1F201FB12009FED339B0CAD0A260B903F
:106290002046FDF78CFB41EC110BB0EE490AF0EE05
:1062A000690A00F011FFB0EE408AF0EE608A0B98A8
:1062B000FDF77DFB53EC182BFDF70AFBFDF788FB80
:1062C00090FBF6F106FB110030302855641C062CBB
:1062D000DEDB0CAA21A10020FFF7E0FC0EA92220A2
:1062E0000E9567DF05AC00212046FDF742FD20A09A
:1062F000062100681090002202A8635C8354491CA8
:10630000521C0C29F9DB042210A91A48FDF78AF95E
:10631000062202A91748FDF7A5F912B0BDEC048BBF
:1063200070BD000025303278253032782530327843
:106330002530327825303278253032780000000060
:106340006D79206D6163206964203D2025730A000A
:1063500040420F0000000000000024406D792070D2
:106360006173736B6579203D2025730A000000007E
:106370005F4D465FE828002007F001BC014901207D
:10638000C8717047F020002010B5184C86B000206E
:10639000E071174B03AA6946072003F03CFF38B1B0
:1063A00014480321008801EB004013A108F068FEA7
:1063B000052007F0E4FB0E48BDF8001028300180EE
:1063C000BDF802104180BDF804108180BDF80C10AA
:1063D000C180BDF80E100181BDF810104181044943
:1063E000606A03F0DCFE06B010BD0000F020002063
:1063F000A8280020542300204552524F52203A2012
:1064000067657420626D6931363020646174612083
:106410006661696C20210000FFB581B01C461646FC
:10642000581C07F065F80546641CE0B200902B4646
:10643000012202A90B4808F047F80746052007F09B
:106440009EFB012004E0295C3218401C02F8011C6C
:10645000A042F8DB7CB2284605F096FD05B0204648
:10646000F0BD0000903603002DE9F043524C8BB094
:106470004FF0000884F801800126A6704F48E061C3
:106480004F4820624F486062204603F0EEFE020053
:10649000A4F58C657ED04CA12E600020FFF7FEFB9A
:1064A000062060710321A1710227E7714FF01109E5
:1064B00084F80490607384F80E80E77315202073CD
:1064C0003D4804F04CF88DF8107009208DF811004B
:1064D000BDF81200384920F4FB7040F00900ADF817
:1064E0001200BDF814008DF8167020F4FC703030E6
:1064F00020F4806040F4007040F00700ADF8140014
:1065000004A803F0E0FE8DF81C608DF81D80BDF836
:106510001E00142720F4FB7040F00900ADF81E00A7
:106520009DF82000244920F0300040F00F008DF845
:1065300020008DF8217007A803F0C5FE1E4803F067
:10654000DEFD84F8049027731B4803F072FF0A20D5
:1065500007F015FB18480CF0FDF9002826D0EE6076
:106560002E61C82007F00BFB134901F14A0003F02C
:10657000D1FD11484A3090F90210B0F90840B0F945
:106580000630B0F904208DE81E0090F9013090F932
:10659000002000E006E016A10020FFF77FFB0BB013
:1065A000BDE8F08320A1C5F8008076E7C5F80C802F
:1065B000C5F81080D5E70000A82800201964020063
:1065C0004D660200796302004572726F72203A20B4
:1065D00047657420626D69313630206461746120D2
:1065E0006661696C20212072736C743D25640A0019
:1065F00063616C6962726174696F6E2076616C753B
:10660000653A2061783D25642C61793D25642C61D3
:106610007A3D25642C67783D25642C67793D256497
:106620002C677A3D25640A0047657420626D6931E4
:106630003630206461746120737563636573732001
:10664000212072736C743D25640A00002DE9FC4121
:10665000FF208DF804001C4616460F46581C06F015
:1066600047FF054607700120641C04E0311811F84B
:10667000011C2954401CA042F8DB01200090E2B22A
:1066800001AB2946064807F01FFF0446052007F026
:1066900076FA64B2284605F077FC2046BDE8FC8116
:1066A000903603002DE9F041BA480023021D01781D
:1066B000101D01254FF0805406290BD1167836079E
:1066C00008D10678C6F30316032E06D0042E04D094
:1066D000052E02D0062907D00EE0B4F82463AE4F91
:1066E000C6F304263E6002E01678360704D1067829
:1066F000C6F30316032E02D0062904D00FE0A84FDC
:10670000A64E7E670EE01678360708D10678C6F3E7
:106710000316032E06D0042E04D0052E02D006291F
:1067200007D00EE0D4F844629E4FC6F342363E6076
:1067300002E01678360704D10678C6F30316032E56
:1067400002D0062906D011E0974E376827F08077EF
:1067500037600EE01678360708D10678C6F30316C0
:10676000032E06D0042E04D0052E02D006290AD00E
:1067700011E04FF08046C6F80C31C6F81031894E52
:10678000361F336002E01678360704D10678C6F368
:106790000316032E02D0062905D00CE0814F0326F4
:1067A00064373E600AE01678360704D10678C6F3EF
:1067B0000316032E02D006290DD014E07B4F0526C8
:1067C0003E607A4E78363560784E083633603F2624
:1067D0003F1D3E6002E01678360704D10678C6F306
:1067E0000316052E02D0062957D062E0704E366897
:1067F000704F3E606E4E361D36683F1D3E606C4EDB
:10680000083636683F1D3E60694E0C3636683F1DBF
:106810003E60674E103636683F1D3E60644E14364B
:1068200036683F1D3E60624E18363668614F20372D
:106830003E605F4E1C3636683F1D3E605C4E203623
:1068400036683F1D3E605A4E243636683F1D3E6016
:10685000574E283636683F1D3E60554E2C363668FA
:106860003F1D3E60524E30363668524F40373E60D4
:106870004F4E343636683F1D3E604D4E38363668D2
:106880003F1D3E604A4E3C3636683F1D3E60484ED6
:10689000403636683F1D3E6002E01678360708D164
:1068A0000678C6F30316032E06D0042E04D0052E58
:1068B00002D0062907D019E0D4F858123E4A01F058
:1068C0004F01116002E0117809070FD10078C0F381
:1068D0000310032803D0042801D0052806D1374827
:1068E0000168C90702D06FF001010160D4F83001DE
:1068F000062808D1D4F83401062804D130480168AC
:1069000041F48061016028487438016841F47001E5
:106910000160BFF34F8FBFF36F8F4FF01020D0F89F
:106920000C12284ACC07284911D015600C68002C9D
:10693000FCD0D0F80C4224F00104C0F80C420868E6
:106940000028FCD0136008680028FCD01AE0D0F8BA
:106950000042002C03DBD0F80442002C14DA15604E
:106960000C68002CFCD01524C0F800420D68002DE6
:10697000FCD0C0F8044208680028FCD01360086806
:106980000028FCD0FDF70CFC114910480860BDE858
:10699000F0810000E00F00F0403501400DF0ADBA8D
:1069A00000C007403C050040FCED00E010560040F0
:1069B0000404001020C50040E40E00400004004024
:1069C0003C17004004E5014000E401400090D00382
:1069D000B822002004220249024806F0CBB9000088
:1069E000AC2D00200080004006220249024806F03B
:1069F000C1B90000B82D002000A001400448017F6B
:106A000004480029024901D00CF081BA0CF0F0B919
:106A1000382D00200020004010B5124C02202061CB
:106A2000606111A0A06104F17800E0614FF4007092
:106A300020620020A06260620BA1A164E06204F504
:106A40001E71E1641021A065C4E91410E06509A17C
:106A5000E01DFCF71BFE08A12046FCF717FE2020D6
:106A6000A07110BDBC3500205465726D696E616CFB
:106A7000000000005254540053454747455200005F
:106A80000269C1688A4203D88068401A104400E055
:106A9000501A401E704700002DE9FC5F0E00814631
:106AA000DDE90C47C6F1000098469346824600D4C3
:106AB0000846012503E000BF90FBFBF06D1C584524
:106AC000FADAA84500D9454624B1002E01DB780743
:106AD00000D5641EB80702D5B8F1000F0FD0F80733
:106AE0000DD164B1A5420AD220214846641E00F0AF
:106AF000A1F8D9F80C000028F3DABDE8FC9FD9F81A
:106B00000C000028F9DB002E02DA56462D2102E0A7
:106B1000780707D52B21484600F08CF8D9F80C00EF
:106B20000028EADB07F0030002280FD1B8F1000FBC
:106B30000CD15CB1A54209D230214846641E00F058
:106B400079F8D9F80C000028F3DAD6E7CDE9004748
:106B500043465A463146484600F002F8CDE7000069
:106B60002DE9F84F8246DDE90A4B01269846914609
:106B70000D460846374602E0B0FBF9F07F1C484559
:106B8000FAD2B84500D947465FEACB7017D1B4B105
:106B90005FEA8B7002D5B8F1000F02D02020009080
:106BA0000BE03020FBE75046641E009900F042F8ED
:106BB000DAF80C00002838DB0CB1A742F3D3DAF87E
:106BC0000C00002831DB00BFB8F1010F02D9A8F199
:106BD000010803E0B5FBF6F0484502D306FB09F6D1
:106BE000F2E7DFF84C8000BFB5FBF6F000FB16556E
:106BF00018F80010504600F01DF8DAF80C000028D4
:106C000003DBB6FBF9F6002EEED15FEACB700CD0B9
:106C1000002C0AD0A74208D220215046641E00F062
:106C200009F8DAF80C000028F2DABDE8F88F000065
:106C30003C3B030010B50446D4E90130421C9342AA
:106C400005D323681954A260E068401CE060D4E9D1
:106C50000102824209D121682069FEF7D3FFA168B1
:106C6000884203D04FF0FF30E06010BD0020A060EC
:106C700010BD2DE9F047C4681746894606464FF017
:106C800000083069A04201D9051B02E0B168201A52
:106C90000D1AB0686D1E001BA84200D80546BD4203
:106CA00000D33D4670682A4620444946FCF796FCCE
:106CB000B0687F1B2C44A844A944A04200D1002402
:106CC000F460002FDDD14046BDE8F0872DE9F041AA
:106CD00004468846D4E90207C51BE1686068164689
:106CE0000844B54206D94146FCF778FCB819E06083
:106CF000BDE8F0812A464146FCF770FC761B08EBA4
:106D0000050132466068FCF769FCE660F0E70000C8
:106D10000FB41CB50246002007AC00290BD0491E59
:106D2000CDE90021054B6A462146069801F040F95D
:106D3000009A002111701CBC5DF814FB1384020042
:106D400003B401984100009850EAC12018BF042004
:106D50004A0D18BF40F0010040F2FF72B2EB515FE4
:106D600008BF40F00200012808BF052002B07047AC
:106D700010B5B94A2DED020B2DED0C8B82B00F9999
:106D800021F000409FEDB6CB90422CDBA0F14053A8
:106D90000E9AA3F17F631A430FD0B349884202DCF5
:106DA00016D10E98A0B19DED0E0B02B0BDEC0C8B70
:106DB00002B0BDE8104001F083B80029C1BF9FEDCB
:106DC000AC0B02B0BDEC0C8B02B0C8BF10BD16E01E
:106DD000012001F0E7F802B0BDEC0C8B02B0BDE879
:106DE000104001F081B8A44A9FEDA59B9FEDA6AB92
:106DF00090425EDAA6499FEDA8CB814208DBB0EE57
:106E00004C0AF0EE6C0A02B0BDEC0C8B02B010BD67
:106E10009DED0E0B53EC102B51EC100BFCF7E6FC28
:106E200041EC180B9E480621B0EE480AF0EE680AC5
:106E3000784400F0AEFF53EC182B51EC100BFCF72C
:106E4000D5FC41EC1B0B9748B0EE480AF0EE680AFF
:106E50000421784400F09DFF53EC182B51EC100BEB
:106E6000FCF7C4FC53EC192BFCF719FC41EC100B9C
:106E700051EC1B0B53EC102BFCF72AFD41EC100BD3
:106E800053EC102B9DED0E0B51EC100BFCF7AEFCF0
:106E900053EC1A2BFCF7A7FC9DED0E1B53EC112BAA
:106EA000FCF7A1FC53EC1C2BFCF79DFC41EC100BF8
:106EB000A9E79FED7D8B9FED7EBB9DED0E0B00291D
:106EC00053EC192B51EC100B52DAFCF7E8FB53ECA6
:106ED000182BFCF78BFC41EC180B77480621B0EE21
:106EE000480AF0EE680A784400F053FF53EC182B80
:106EF00051EC100BFCF77AFC41EC1D0B6F48B0EE27
:106F0000480AF0EE680A0421784400F042FF53EC8E
:106F1000182B51EC100BFCF769FC53EC192BFCF708
:106F2000BEFB41EC190B51EC180B0BF0DCFC41ECF7
:106F3000180B53EC192B51EC1D0BFCF7C9FC53EC4F
:106F4000182BFCF753FC53EC1A2BFCF749FC41ECD3
:106F5000100B51EC180B53EC102BFCF7A0FB53EC6F
:106F60001B2BFCF743FC53EC1C2BFCF73CFC6DE0AB
:106F7000FCF739FC53EC182BFCF738FC41EC180BF0
:106F80000BF0B1FC41EC1A0B00208DED00AB009032
:106F90009DED000B51EC1A0B53EC102BFCF77FFB13
:106FA0009DED000B41EC1C0B53EC102B51EC100B26
:106FB000FCF71CFC53EC182BFCF715FC53EC1C2BBA
:106FC000FCF786FC41EC1C0B3D48B0EE480AF0EEA5
:106FD000680A0621784400F0DCFE53EC182B51ECD3
:106FE000100BFCF703FC41EC1D0B3648B0EE480AD1
:106FF000F0EE680A0421784400F0CBFE53EC182B25
:1070000051EC100BFCF7F2FB53EC192BFCF747FB90
:1070100041EC100B51EC1D0B53EC102BFCF758FC02
:1070200053EC1A2BFCF7E2FB53EC1C2BFCF737FB61
:1070300041EC100B53EC102B9DED000B51EC100BA1
:10704000FCF72DFB53EC1B2BFCF7D0FB41EC100B9A
:10705000D9E60000000000000000F03F0000000042
:10706000182D4454FB2109400000F07F000000006F
:1070700000000000000000000000E03F00000000F1
:10708000000000000000F03F075C143326A6913C8E
:107090000000603C00000000182D4454FB21F93F23
:1070A000BCCD0000CACD0000000000000000E03FA1
:1070B000000000000000004006CD000014CD0000DC
:1070C00018CC000026CC00002DE9F04D2DED040B6E
:1070D0002DED0E8B96B0DDE92550279CDDF890A0B4
:1070E00025F0004624F00048BAF1000F14BF01213A
:1070F000002101EB4502FC4953184A1093422AD360
:10710000002814BF0123002303EB44030B44F74979
:107110008B4220D358EA00019FEDF59B76D0DFF833
:10712000D8B35D4503D1BAF1000F05D188E0BAF1BB
:10713000000F08BF002100D0012101EB450111F52E
:10714000001F08D8002814BF0121002101EB4401D1
:1071500011F5001F0BD99DED261B9DED240B16B0DC
:10716000BDEC0E8B04B0BDE8F04D00F0B3BE0027BF
:10717000002DBCBFE149884521DAE1498845A8BF17
:1071800002271CDAC3451ADCDE4901EB2851142919
:1071900008DDC1F1340220FA02F101FA02F2824262
:1071A0000DD108E058B9C1F1140228FA02F101FA30
:1071B00002F2424503D101F00101C1F1020756EA92
:1071C0000A0124D1002C22DA002D18BF022F01D091
:1071D000012F0AD0022000F0E5FE16B0BDEC0E8BA8
:1071E00004B0BDE8F04D00F053BE022000F0DAFE1E
:1071F00000F04EFE51EC100B81F0004141EC100B01
:1072000016B0BDEC0E8B04B0BDE8F08D18E09FED1C
:10721000BEAB9FEDBF8B002871D1B848804522D10D
:1072200005F1804010F5801008BFBAF1000F07D0BB
:10723000B3450ADC002CA8BF9DED260BE0DA0DE07B
:10724000B0EE490AF0EE690ADAE7002C06DA9DEDA5
:10725000260B51EC100B81F000416FE0AE487844F2
:1072600090ED000BCCE7D8454DD1002C48DA2EB17B
:1072700086423AD1BAF1000F42D126E0BAF1000FAE
:1072800013D0022000F08EFE00F03EFE8DED020BCA
:107290009DED240B8DED000B10EE900A039961F328
:1072A0001E0003909DED020BAAE78DED02AB9DED54
:1072B000240B1AEE901A10EE900A8DED000B61F37C
:1072C0001E0003909DED020B9AE78DED028B9DED64
:1072D000240B18EE901A10EE900A8DED000B61F35E
:1072E0001E0003909DED020B8AE709DA9DED240B49
:1072F00051EC190B53EC102BFCF7EAFA1EE020E0DE
:107300009DED240B7CE786421BDAB4F1804F0DD053
:10731000A4F10050B0F1FF5013D1002D11DB9DED11
:10732000240B51EC100B0BF0DEFA07E09DED240B63
:1073300053EC102B51EC100B00F0C2BC41EC100BC5
:107340005EE79DED240B51EC100B04F0EBFBBAF162
:10735000000FCDE90E0142D19FED710B46B3A6F1AE
:10736000E040B0F17F600CD05E4538D1002D00DAEE
:10737000A7B3022F0CBF01204FF0FF30FCF717FB23
:10738000DCE7002D01DD002C0DDA002D01DD002CE5
:107390001FDB002D16DA002C14DB012F08BF9FED38
:1073A000620B3FF42DAFB0EE4A0AF0EE6A0A27E70F
:1073B000022F18BF002D0CD0012F0AD1002DFFF68F
:1073C0001FAF06E0002DB8BF002C08DA012F3FF4F4
:1073D00017AFB0EE480AF0EE680A11E71BE0012093
:1073E00000EBE57050EA070115D0791EB0EE498A2E
:1073F000F0EE698A084308BF9FED4D8B4E4800258B
:10740000804570DD4D494E48884514DDB0420DDBA6
:10741000002C19DB2FE0012000F0C4FD16B0BDECFC
:107420000E8B04B0BDE8F04D00F05EBDB34502DC4C
:10743000002C09DC1FE0864202DA002C1BDA03E094
:107440005E452BDD002C16DD022000F0ABFD00F0C8
:107450005BFD8DED020B53EC1A2B51EC180BFCF776
:10746000C5F9CDE900010399019861F31E0003906D
:107470009DED020BC4E6022000F094FD00F054FDE7
:1074800010EE901A18EE900A8DED020B8DED008B28
:1074900061F31E0003909DED020BB1E69DED0E0B16
:1074A00053EC192B51EC100BFCF79AF99FED260BBE
:1074B000CDE9080153EC102B9DED080B51EC100B9E
:1074C000FCF794F99FED221B53EC112BFCF78BF981
:1074D0009DED081B53EC112BFCF788F99FED1E1B4B
:1074E00053EC112B3CE08CE0FFFF1F00FFFF0F006F
:1074F000000000000000F03F0000F03F0000F07FBF
:107500000000404301FCFFFF000000000000F07F8E
:107510000000000000000000EECA000000000000B3
:107520000000000000000080000000000000F0FFEC
:10753000000000000000F0BF0000E0410000F04348
:10754000FFFFEF3F00000000000000000000D03F00
:10755000555555555555D53F000000000000E03FFA
:10756000FCF741F99DED080B41EC1A0B53EC102B85
:1075700051EC100BFCF73AF953EC1A2BFCF736F9E7
:1075800041EC1A0B9FEDFE0B53EC102B9DED080BFD
:1075900051EC100BFCF72AF941EC1B0B9FEDFA0B99
:1075A00051EC1A0B53EC102BFCF720F941EC1A0BA1
:1075B0009FEDF70B53EC102B9DED080B51EC100BCE
:1075C000FCF714F953EC1A2BFCF70AF941EC1A0BEF
:1075D00051EC1B0B53EC1A2BFCF761F80690CDE92C
:1075E00006519DED060B53EC1B2B51EC100BFCF7D9
:1075F000F7F853EC1A2BFCF7F6F841EC100B00F0FF
:10760000A1B90020B6F5801F0EDA9FEDE30B53EC15
:10761000102B9DED0E0B51EC100BFCF7E7F8CDE9AC
:107620000E016FF034000E4600EB2650A0F2FF373B
:10763000C6F31300DA4940F07F6646F040568842B0
:10764000D8BF002408DDD7498142C8BF012403DC2C
:107650000024A6F580167F1CD348784400EBC400B4
:107660000F9690ED00CB9DED0E0B53EC1C2B51ECC7
:10767000100BFCF7B5F89DED0E0B41EC1B0B53EC1A
:107680001C2B51EC100BFCF70AF841EC100B51ECE1
:10769000190B53EC102BFCF71BF941EC1D0B51ECB3
:1076A0001B0B53EC1D2BFCF7A1F841EC1A0BBF4848
:1076B0008DED10AB7844109590ED000B4FF000501D
:1076C00040EA660000EB84408DED080B00F50020D9
:1076D00009909DED080B53EC1C2B51EC100BFCF7A3
:1076E0007FF89DED0E1B53EC112BFCF77CF841EC61
:1076F000100B53EC102B9DED100B51EC100BFCF705
:1077000075F89DED080B41EC1C0B53EC102B9DED17
:10771000100B51EC100BFCF769F853EC1B2BFCF72A
:1077200062F853EC1C2BFCF75BF853EC1D2BFCF7B9
:107730005DF841EC1C0B53EC1A2B51EC1A0BFCF7C7
:1077400055F841EC1B0B9A480621B0EE4B0AF0EEBF
:107750006B0A784400F01DFBB0EE401AF0EE601AA0
:10776000B0EE41DAF0EE61DA53EC1B2B51EC1B0B5F
:10777000FCF73CF853EC1D2BFCF738F89DED100B93
:1077800041EC1B0B53EC1A2B51EC100BFBF787FF52
:1077900053EC1C2BFCF72AF853EC1B2BFBF77FFF59
:1077A0009DED100B41EC1B0B53EC102B51EC100B0F
:1077B000FCF71CF841EC1D0B9FED7FEB53EC1E2BEF
:1077C000FBF76DFF53EC1B2BFBF769FF0890CDE92E
:1077D00008519DED080B53EC1E2B51EC100BFBF7E1
:1077E000FFFF53EC1D2BFBF7FBFF53EC1B2BFBF7B1
:1077F000FAFF9DED080B41EC1D0B53EC102B9DED9A
:10780000100B51EC100BFBF7F1FF41EC1B0B53EC91
:107810001A2B51EC1D0BFBF7E9FF9DED080B41EC1A
:107820001A0B53EC102B51EC1C0BFBF7DFFF53EC46
:107830001A2BFBF734FF41EC1A0B51EC1B0B53ECEA
:107840001A2BFBF72CFF0C90CDE90C519DED0C0B86
:1078500053EC1B2B51EC100BFBF7C2FF53EC1A2B14
:10786000FBF7C1FF41EC1B0B9FED550B53EC102BAD
:107870009DED0C0B51EC100BFBF7B8FF41EC1A0B14
:107880009FED510B51EC1B0B53EC102BFBF7AEFF94
:1078900041EC1B0B9FED4E0B53EC102B9DED0C0B95
:1078A00051EC100BFBF7A2FF53EC1B2BFBF7F7FE81
:1078B00041EC100B4848784400EBC40090ED001BED
:1078C00051EC100B53EC112BFBF7E9FE41EC1B0BB9
:1078D0003846FCF76CF8CDE9080153EC1B2B51EC52
:1078E0001A0BFBF7DCFE41EC100B3C48784400EB34
:1078F000C40090ED00CB51EC100B53EC1C2BFBF7AC
:10790000CEFE9DED081B53EC112BFBF7C8FE069035
:10791000CDE906519DED080B53EC102B9DED060BA8
:1079200051EC100BFBF75CFF53EC1C2BFBF758FFE3
:1079300053EC1A2BFBF754FF53EC1B2BFBF753FFB5
:1079400041EC100B9DED261B53EC102B8DED001B15
:1079500000959DED260B51EC100BFBF747FF9DEDBD
:10796000000B41EC1A0B53EC102B9DED260B51EC48
:10797000100BFBF735FF9DED061B53EC112B2FE091
:10798000000000604715F73FFE822B654715F73F63
:1079900044DF5DF80BAE543E0000000000004043A1
:1079A0008E9803007AB60B00E2C5000098C600006E
:1079B0001AC50000000000000000000000000840A0
:1079C000000000E009C7EE3FFD033ADC09C7EE3FC7
:1079D000F5015B14E02F3EBEA6C3000060C30000AB
:1079E000FBF704FF53EC1A2BFBF759FE9DED060B3A
:1079F00041EC1A0B53EC102B9DED000B51EC100BCE
:107A0000FBF7F4FECDE90C019DED0C0B51EC1A0BCC
:107A100053EC102BFBF743FECDE902010C46AA49BB
:107A20008C422FDB611A084318D19DED0C0B53ECEF
:107A3000102B9DED020B51EC100BFBF7D1FE41EC2E
:107A40001B0B9FEDA30B51EC1A0B53EC102BFBF708
:107A500026FE53EC1B2BFBF7EDFF2DD2022000F08E
:107A6000A1FA00F051FA10EE901A18EE900A8DED7E
:107A7000020B8DED008B61F31E0003909DED020B58
:107A8000FFF7BEBB944A24F00041914214D39349BE
:107A9000214408437FF4EFAC9DED0C0B53EC102B0D
:107AA0009DED020B51EC100BFBF79AFE53EC1A2BD9
:107AB000FBF7C0FF7FF6DFAC24F000408849894A1D
:107AC000002601EB205182422BDA481C4FF4801132
:107AD00021FA00F02044844AC0F30A517A44A1F20A
:107AE000FF3192ED000B814A8DED080BCA4020EA70
:107AF0000202C0F3130040F48010C1F1140120FA17
:107B000001F60992002CB8BF76429DED080B53ECAC
:107B1000102B9DED0C0B51EC100BFBF761FECDE92A
:107B20000C019DED0C0B51EC1A0B53EC102BFBF7D9
:107B3000B6FD9FED6F0B0890CDE9085153EC102B6B
:107B40009DED080B51EC100BFBF750FE41EC1B0BAD
:107B50009FED690B53EC102B9DED080B51EC100BB6
:107B6000FBF744FE9DED0C0B41EC1C0B53EC102B72
:107B70009DED080B51EC100BFBF732FE53EC1A2B6A
:107B8000FBF731FE9FED5E1B53EC112BFBF72EFE36
:107B900053EC1C2BFBF783FD41EC1A0B51EC1B0B38
:107BA00053EC1A2BFBF77BFDCDE902019DED020B97
:107BB00053EC1B2B51EC100BFBF712FE53EC1A2B62
:107BC000FBF711FE9DED020B41EC1A0B53EC102B51
:107BD00051EC100BFBF70AFECDE908014A489DED78
:107BE000080B0521784400F0D4F89DED081B51ECFA
:107BF000100B53EC112BFBF7F9FD9DED021B53EC21
:107C0000112BFBF7F0FDCDE906019DED020B53ECC6
:107C10001A2B51EC100BFBF7E9FD53EC1A2BFBF779
:107C20003EFD9FED3B0B41EC1A0B53EC102B9DEDF1
:107C3000060B51EC100BFBF7D3FD9DED060B41EC51
:107C40001B0B53EC102B9DED020B51EC100BFBF7B3
:107C5000CDFD53EC1B2BFBF73BFE53EC1A2BFBF734
:107C6000BFFD9DED021B53EC112BFBF7B9FD53EC4F
:107C7000192BFBF7B8FDCDE9020101EB0650011508
:107C80000029C8BF039015DC9DED020B324651EC74
:107C9000100BFBF7C8FFFFF753F8042808BF00F0EC
:107CA00043F932469DED020B51EC100BFBF7BBFF85
:107CB000CDE902019DED020B51EC180B53EC102B9A
:107CC000FBF794FDFFF73ABB000090400000000076
:107CD000FE822B654715973C00CC904000346F3FE7
:107CE00001FCFFFF0000E03F70C20000FFFF0F003B
:107CF00000000000432EE63F396CA80C615C20BEFA
:107D0000EF39FAFE422EE63FB8C000000000000046
:107D1000000000000000004000B52DED048BB0EE27
:107D2000409AF0EE609A83B051EC190BFBF792FF8A
:107D300041EC180B18EE100A18EE901A8DED008B1E
:107D4000002818BF0120084320F00040C0F17F60E8
:107D500000F1E040C00F14D019EE101A19EE900A8D
:107D60008DED009B002918BF0121084320F0004041
:107D7000C0F17F6000F1E040C00F04BF012000F0BF
:107D800011F9B0EE480A03B0F0EE680ABDEC048BBE
:107D900000BD70B504462DED028B4D1E00EBC500F5
:107DA000B0EE408AF0EE608A90ED000B35F00600F0
:107DB00017D053EC182B51EC100BFBF717FD41ECCF
:107DC000100B6D1E04EBC50090ED001B51EC100B69
:107DD00053EC112BFBF763FC41EC100B35F0060064
:107DE000E7D1022D36D0042D1CD0062D1CBFBDECD2
:107DF000028B70BD53EC182B51EC100BFBF7F6FC0B
:107E000094ED0A1B53EC112BFBF749FC53EC182B98
:107E1000FBF7ECFC94ED081B53EC112BFBF73FFC3C
:107E200041EC100B53EC182B51EC100BFBF7DEFC64
:107E300094ED061B53EC112BFBF731FC53EC182B84
:107E4000FBF7D4FC94ED040B53EC102BFBF727FC51
:107E500041EC100B53EC182B51EC100BFBF7C6FC4C
:107E600094ED021B53EC112BFBF719FC53EC182B70
:107E7000FBF7BCFC94ED001B53EC112BFBF70FFC44
:107E8000BDEC028B41EC100B70BD00000000000047
:107E90009FED070B10B553EC102B9FED070B51EC2A
:107EA000100BFBF715FD41EC100B10BD000000009E
:107EB0000000000000000000000000000000F03F93
:107EC00010B553EC102B51EC100BFBF7E8FB41EC19
:107ED000100B10BD10B553EC112B51EC100BFBF730
:107EE000DEFB41EC100B10BD9FED050B10B553EC04
:107EF000102B51EC100BFBF7EBFC41EC100B10BD01
:107F000000000000000000009FED050B10B553ECD1
:107F1000102B51EC100BFBF769FC41EC100B10BD62
:107F200000000000000000709FED050B10B553EC41
:107F3000102B51EC100BFBF759FC41EC100B10BD52
:107F4000000000000000001002E008C8121F08C175
:107F5000002AFAD170477047002001E001C1121FCA
:107F6000002AFBD1704700000121202803DA81405C
:107F70000548014003E0402802DA2038814009B179
:107F80000120704700207047FC06FFBD082806D27C
:107F900028B1012803D0042801D001207047002017
:107FA000704700000149086070470000C4220020AB
:107FB0002DE9FF4F8DB00F460546002606E0252827
:107FC0000BD0DDE90F1290476D1C761C2878002835
:107FD000F5D111B03046BDE8F08F0024A246A1468D
:107FE0000122EC4900E0044315F8013F203B02FA6E
:107FF00003F00842F7D128782A2810D06FF02F021A
:108000002878A0F13001092914D80AEB8A0102EB83
:10801000410144F0020400EB010A6D1CF0E701CFBE
:108020005FEA000A03D544F40054CAF1000A44F0A0
:1080300002046D1C28782E2817D115F8010F44F082
:1080400004042A280ED06FF02F022878A0F1300106
:1080500009290AD809EB890102EB410100EB01096A
:108060006D1CF2E757F8049B6D1C28786C280FD024
:1080700006DC4C2817D068280DD06A2814D104E0FB
:10808000742810D07A280FD10DE044F400140AE0CF
:1080900044F4801401E044F440146978814202D130
:1080A00004F580146D1C6D1C2A786E2A1FD00CDC20
:1080B000632A31D004DC002A8BD0582A11D1A3E0E6
:1080C000642A68D0692A0CD165E0732A2ED004DCBA
:1080D0006F2A73D0702A04D19BE0752A6FD0782A5A
:1080E0006ED01046DDE90F129047761C50E1C4F3C4
:1080F0000250022806D0032809D0042801CF09D055
:10810000066045E101CFF117C0E9006140E101CF10
:1081100006803DE106703BE117F8040B8DF8000086
:1081200000208DF80100EB46012003E057F804BB66
:108130004FF0FF3061074FF0000102D40DE008F16D
:108140000101884649450FDA8045F8DB1BF8081025
:108150000029F4D108E008F1010188468142FADBE8
:108160001BF808100029F6D1DDE90F23AAEB08005F
:108170008146214600F036F9304400EB080604E061
:10818000DDE90F121BF8010B9047B8F10108F7D297
:1081900021464846F7E00A21C4F302534FF0000B92
:1081A0000891022B04D001CFC117032B09D00AE09C
:1081B000FF1D27F00707F7E8020108E032E01FE0A3
:1081C00020E000B2C117042B01D140B2C117031E39
:1081D00071F1000307DA4FF0000CD0EB0C006CEBF0
:1081E00001012D2302E0230504D52B238DF8243033
:1081F000012303E0E30701D02023F7E7984658E086
:108200000A2110E010210EE010204FF0000B089022
:108210000CE010214FF0000B44F004044FF008096B
:10822000089103E008214FF0000B0891C4F30253BA
:10823000022B04D001CF0021032B06D006E0FF1D46
:1082400027F00707F7E8020103E080B2042B00D112
:10825000C0B24FF0000823072BD5702A07D0DDF8F5
:1082600020C08CF0100C5CEA0B0C05D00EE0402313
:108270008DF82430012308E050EA010306D03023B2
:108280008DF824308DF8252002239846DDF820C093
:108290008CF0080C5CEA0B0C0BD150EA010301D105
:1082A000630706D530238DF824304FF00108A9F17B
:1082B0000109582A04D038A20B9208AA0A920BE0AE
:1082C0003AA2F9E75B46089AFBF752F90B9B9B5CD5
:1082D0000A9A521E0A92137050EA0102F2D10A98C9
:1082E000ADEB000000F1200B600702D524F48034D0
:1082F00001E04FF00109D94502DDA9EB0B0000E0D8
:10830000002000EB0B0141440890AAEB010AE003B6
:1083100006D4DDE90F232146504600F063F80644F9
:108320004FF0000908E009A911F80900DDE90F1272
:10833000904709F10109761CC145F4DBE0030CD537
:10834000DDE90F232146504600F04CF8064404E0D6
:10835000DDE90F1230209047761C0899481E0890DE
:108360000029F5DC08E00A980A990078491C0A916E
:10837000DDE90F129047761CBBF10001ABF1010B58
:10838000F1DC21465046DDE90F2300F019F80644E0
:108390006D1C1BE609280100303132333435363785
:1083A0003839616263646566000000003031323341
:1083B00034353637383941424344454600000000E1
:1083C0002DE9F041044600251E461746880404D4D2
:1083D00005E039462020B0476D1C641EF9D52846BB
:1083E000BDE8F0812DE9F041044600251E46904687
:1083F000C80301D5302700E02027880404D505E014
:1084000041463846B0476D1C641EF9D52846BDE884
:10841000F0814A68002A06D00A68531C0B6010706D
:108420004868401E4860704710B560B159B1027885
:108430000B785208B2EB530F05D10622401C491CA1
:10844000FBF703F908B1002010BD012010BD800723
:1084500001D00020704701207047C3688B4206D8C6
:1084600011440069491E814201D801207047002053
:10847000704710B501220221002002F0C5FA08B1B0
:10848000072810D107220221012002F0BDFA08B10D
:10849000072808D100210A22084602F0B5FA08B1DF
:1084A000072800D1002010BD10B550B10F4803219E
:1084B000008801EB00400EA106F0E2FD08F022FD6D
:1084C0000DE003210E4800F078FF08B100F0B8F885
:1084D0000C4800224FF48041006900F0FBF80028AE
:1084E00003D0BDE8104000F0ABB810BD542300200D
:1084F000457261736520626F6E6473210000000035
:10850000A42700206836030070B58CB015460E46CF
:1085100000236C46C3F10F01415CE1545B1C102B3E
:10852000F8D30D2104F11000FBF771F80020C0F121
:108530000F02315C2244401C11740328F7D36846B3
:1085400043DF0020C0F10F01214491F8201029548D
:10855000401C0328F6D30CB070BD022002F042B9D3
:108560000149097901F03CB98021002070B500244F
:10857000064D06E06868012110F8340005F020FC83
:10858000641C28788442F5D3002070BDF4210020BB
:10859000F8B515460C460646052A01D20720F8BD57
:1085A00005F0F4FC18B905F0C3FC0028F7D1104918
:1085B00000204E600C70C1E902500E4D08610DE0C4
:1085C00006EBC4006968009181788DF8011000788D
:1085D000094A694605F046FC0028E0D1641EE4B271
:1085E000EED2BDE8F840054A0021024800F034B858
:1085F000F421002098390300E9C50200F1B7020018
:1086000010B506F0F5FD00BF06F042FC0028FBD1D6
:1086100006480121008801EB004005A106F030FD6D
:1086200006480068C00700D000BE10BD54230020DB
:10863000466174616C206572726F7200F0ED00E04B
:108640000EB500210091CDE901106A4644F2010007
:10865000FFF7D6FF0EBD0000084B9B7823B12AB16F
:1086600020B10068037C1BB10820704707207047C9
:10867000002303744174426118467047E42D0020C2
:1086800070B508F055FF104800240B2104704470A9
:108690000E4D817014206C602C706C70FBF73CFDEB
:1086A00007211420FBF759FD1420FBF740FD084873
:1086B000046007211120FBF750FD0548001F0068EA
:1086C000A860002070BD0000E42D002008220020DA
:1086D000081501402DE9FC47DFF8789099F8023041
:1086E00073B368B3052902D20720BDE8FC8743694C
:1086F00033B3437C012B25D0002704460025884650
:1087000016468DF80050684600F038F801A80AF0C7
:1087100025FDC8B1012101700F4944600968C0E915
:108720000218C0E904769DF8040089F801009DF85C
:10873000000000F047F81420FBF704FD2846D4E7BA
:108740000820D2E70F46D8E704259DF8000000F086
:1087500039F8F3E7E42D0020041501400649897833
:1087600039B130B1416921B10021017402210AF00F
:1087700007BA082070470000E42D002030B5EFF361
:10878000108172B60D4A9468012324B10370002948
:1087900000D162B630BD93604FF0E023D3F8805132
:1087A000074C25401560C3F88041D3F884415460DC
:1087B0005A17C3F8842100220270E8E7F02E002047
:1087C000FC06FFBD0B498A68002A11D000280FD192
:1087D000EFF3108072B60B684FF0E022C2F8003160
:1087E0004B68C2F8043100228A60002800D162B6CA
:1087F00070470000F02E00202DE9F0410646086881
:108800000C46411C4FF0A0474FF0010506D005FA79
:1088100000F1C7F80815206806F002FA6068411CEC
:1088200002D0002106F0E9F93079204901EB40102F
:10883000A169007F00283068C0F8241525D0607D2C
:10884000227D31681043C1F86C05D4E9001230680C
:10885000C0F80C15C0F8142524E0A068411C02D013
:10886000002106F0CAF9E068411C05D08540C7F830
:108870000855E06806F0D4F9D4E902123068C0F86F
:108880000825C0F81015BDE8F081607D217D3268B3
:108890000843C2F86C05D4E900123068C0F814250A
:1088A000C0F80C15207D0128D7D0ECE7382D00202A
:1088B0002DE9F047074600888EB0804600F03CFF67
:1088C0000646404604F00EF9824604462E4800252E
:1088D0002A460178404600F099FF002E50D0787962
:1088E000400734D501254FF6FF7603AB2A46072112
:1088F000504607F0AFFB010004D0404609F0A6F84F
:1089000000252BE0B1463146049804F03FF80646B6
:1089100048450FD004460146404604F0CDF8404695
:10892000FFF71EFE30B9404609F062F84046FFF7F7
:1089300017FE48B122460721504607F021FC0100EE
:1089400003D0404609F082F800254E4506D0404647
:1089500007F084FD10B1504604F0B0F802208DF805
:108960001800ADF81A807879400701D5012000E0A1
:1089700002208DF820008DF8215006A803F0BEF8E3
:108980000EB0BDE8F0870000802100202DE9F04303
:108990000546007D93B00E460024A0B107949DF8D3
:1089A0001C0020F00F00401C20F0F00010308DF86B
:1089B0001C00707B8DF81D009DF81E0020F0060045
:1089C000801C8DF81E001C216846FAF720FE9DF8D9
:1089D000000040F002008DF80000297D11B140F048
:1089E000100001E020F010008DF8000001940394C5
:1089F0000494287D00B107A8CDE9050401278DF86E
:108A0000427042F61920ADF840000D94B07B8DF80D
:108A10003400F07B8DF835009DF83600142120F0ED
:108A20000600801C20F019008DF83600307B8DF890
:108A3000440008A8FAF7EBFD0DF140080DF13409E8
:108A4000ADF8287011A8CDE90889ADF82A40ADF835
:108A50002C700C90A888AB1D08AA6946A2DF0028DC
:108A600038D1B06898B38DF8427042F60810ADF86E
:108A700040000D94307C8DF834009DF8350020F0D6
:108A8000FF008DF835009DF8360020F00600801CB0
:108A900020F019008DF836000EA8B16801F029FB0E
:108AA0000646142108A8FAF7B2FDADF828600EA812
:108AB000CDE90889ADF82A40ADF82C600C90E88823
:108AC00005F10E0208A9A3DF002803D101E0FFE7AA
:108AD000EC81002013B0BDE8F08370B59CB0044673
