:020000022000DC
:1060000000000120756302005D6302005F6302000F
:106010006163020063630200656302000000000028
:1060200000000000000000000000000067630200A4
:1060300069630200000000006B6302006D630200F0
:10604000FD9502006F630200099A0200BD9C0200E8
:106050006F6302006F630200BD9802009DA0020002
:106060006F6302006F6302002DA702006F630200DE
:106070006F6302006F6302006F6302006F630200D0
:106080006F630200057702006F6302006F63020016
:106090006F6302006F6302009D0403006F630200E0
:1060A0006F6302006F63020041A702006F6302008A
:1060B0006F6302006F630200000000000000000038
:1060C0006F6302006F6302006F6302006F63020080
:1060D000F1A802006F6302006F630200000000007D
:1060E00000000000000000000000000000000000B0
:1060F00000000000000000000000000000000000A0
:10610000000000000000000000000000000000008F
:10611000000000000000000000000000000000007F
:10612000000000000000000000000000000000006F
:10613000000000000000000000000000000000005F
:10614000000000000000000000000000000000004F
:10615000000000000000000000000000000000003F
:10616000000000000000000000000000000000002F
:10617000000000000000000000000000000000001F
:10618000000000000000000000000000000000000F
:1061900000000000000000000000000000000000FF
:1061A00000000000000000000000000000000000EF
:1061B00000000000000000000000000000000000DF
:1061C00000000000000000000000000000000000CF
:1061D00000000000000000000000000000000000BF
:1061E00000000000000000000000000000000000AF
:1061F000000000000000000000000000000000009F
:10620000354936480A1A02D0072291438D4634494F
:1062100034480A1A06D00722914381F309880222E2
:1062200082F3148830483149314A00F044F831484B
:106230003149324A00F03FF831483249324A00F0E1
:106240003AF832483249334A00F035F83248334997
:10625000334A00F030F833483349344A00F02BF821
:1062600033483449344A00F026F83448344900228F
:1062700000F02CF833483449002200F027F8334866
:106280003349091A082902DB002202604160314AC1
:1062900090471F481F49884205D00268043003B464
:1062A000904703BCF7E700208646EC46002000211B
:1062B000294A9047FEE7884207D0521A05D0037852
:1062C00001300B700131013AF9D17047884202D098
:1062D00002700130FAE770470000012000E0002062
:1062E0000000012000000120A83A03000423002040
:1062F0007C230020D0630200D063020080170300DB
:10630000A83A0300042300200423002054190300AA
:1063100054190300541903005419030054190300BD
:10632000541903005419030054190300A73A030039
:10633000203B03007C2300207C2300207C230020C2
:10634000D83A0020D83A0020D83A0020D83A002085
:10635000D85A00209D63020091B60200FEE7FEE7D6
:10636000FEE7FEE7FEE7FEE7FEE7FEE7FEE7FEE705
:1063700000F002B8FFF7FCBF0F484FF00701884359
:1063800085460E4880470E48016841F4700101605F
:10639000BFF34F8FBFF36F8FFFF732BF09480A4932
:1063A0000A4A884207D0521A05D0037801300B7090
:1063B0000131013AF9D17047000001203990020003
:1063C00088ED00E040190300F022002004230020A3
:1063D0007047000007B5044B0093044A402300F0C7
:1063E00032F803B05DF804FBF16302007D23002066
:1063F0002DE9F84388461446B2B10F4B0F4E0325E2
:10640000002743F00109224608EB0701002005F0B0
:1064100009FD0744241A48B933782BB14FF47A4068
:10642000C847013D02D13570BDE8F88301233370C0
:10643000002CE8D1F8E700BF601903007C2300209E
:10644000704705F03FBDF0B595B01D4616460846AD
:106450000C4601F051FD1A9B0D93CDE9086500250E
:106460002B46082205A920460A958DF82C500C953C
:1064700001F05EFD079B0293069B03939DF8143089
:106480008DF8115003F00302012A1DD1BDF814202C
:10649000059DC3F3C203C2F383168DF81030B2001A
:1064A00008230EA9204601F043FDC5F3952508AB4E
:1064B0000093324602AB0EA9284600F03BFB204673
:1064C00001F01EFD15B0F0BD022AF8D1BDF816503E
:1064D000C3F3C203C5F389158DF810300827082DC2
:1064E0002E4628BF08263B4632460EA9204601F01C
:1064F0001FFDAD1B08AB02AA31460EA8374400F0C1
:106500007DFB002DEBD1DAE708B5FFF79AFF0448D1
:10651000042100F079FA034B01225A7108BD00BF33
:106520003019030004230020037813F0040216D06E
:1065300003F00303012B03D0022B09D00120704785
:106540000A6800880232C0F3831002440A60F5E74B
:106550000B684288023303EB92130B60EEE71046A0
:10656000704700002DE9F04FDFF81CA187B00F46FF
:1065700000230446861C0DF1070015468DF80730F0
:1065800000F052FFDAF804203A60DAF8083003F538
:1065900080739B1A0AF21C470AF583690AF21448B1
:1065A000B3421AD30020002D69D004F00F039B01E1
:1065B00043F0050363F30F00DAF80430DAB2033274
:1065C00033444AF822009DF80700CAF8043000F06E
:1065D0004FFF012007B0BDE8F08F0121384601F0E0
:1065E000C1F9484601F0D6F9404601F0D3F9DAF88E
:1065F00008000290C0B203300AEB800002A9FFF746
:1066000093FF029B30BBDAB20AEB8202D16803919E
:106610009A1C0133DBB20AEB83030292D3F80CB06D
:1066200001F00303012B22D0022B15D083464046F4
:1066300001F0B3F910B1029BCAF808305946384648
:1066400001F090F9DAF80830DAF8042003F58073E5
:106650009B1AA5E7D8B2CEE7BDF80E30C3F3891375
:1066600003334FEA1B4B02EB93030293DFE7BDF8C2
:106670000C30C3F383134FEA1B4B1344F5E7A40517
:1066800044F0060098E700BF90240020064B07481E
:1066900010B500221A7001F0E8FB044610B9044856
:1066A00001F0E8FC204610BD902400201C180300D7
:1066B0009C19030030B50A4C71B10A4A0A49121BF1
:1066C000D20800239A4201D1002030BD31F8235076
:1066D000854202D00133F5E7034654F83300F4E76E
:1066E000301803003019030004230020094B01393E
:1066F00003EBC000032909D8DFE801F00A02040611
:106700000420704700797047407970470020704737
:106710000220704730180300034BD3E90130C31A3D
:1067200058425841704700BF902400202DE9F041A5
:1067300086B0FFF7F1FF0546002840F0ED80774C6A
:10674000C4F81804BFF34F8FA3680293DBB203337E
:1067500004EB830002A9FFF7E7FE029B18B1D4F80F
:106760001824002A5AD0DAB2991C013304EB8202B1
:10677000DBB204EB8303D268DB68049302F003030B
:10678000022B0392029154D1BDF80E306448C3F33A
:106790008917502F3E4628BF502606F1080166F3A0
:1067A0008F13C1F30901ADF80E3001F076FB0546F9
:1067B000002800F09C8001F09FFB0023082203A921
:1067C000284601F0ABFB0299CB43DBB20133C9B2DF
:1067D0000331B6EB830F4FEA830204EB810125D925
:1067E0005FFA82F80823A6EB0806284601F096FB1C
:1067F000F6B208F108034B4903F0FC033246284681
:1068000001F08CFB029B033703EB97070297D4F848
:106810001834002B43D1D4F8106453E062689A42D4
:1068200094D8A260284606B0BDE8F081082332461D
:10683000E5E7012B5BD1BDF80C303948C3F3831178
:10684000062928BF062161F38913023101F00F01E7
:106850008900ADF80C3001F020FB0546002846D039
:1068600001F04AFB0023082203A9284601F056FB49
:106870000026BDF80C20C2F38312B300964203F148
:106880000803C4D202994A1CC9B20331029204EB34
:1068900081010422284601F041FB0136E9E7284640
:1068A00001F02EFBFFF738FF80F00100C5B2B9E719
:1068B000F3685B7923B1336829461B6830469847F3
:1068C000F3681E68002EF3D1284601F019FB0DF184
:1068D00007008DF8076000F0A7FDD4F818340BB955
:1068E000029BA3609DF8070000F0C2FDDAE7D4F830
:1068F000104454B90C4B0D480D49C01AC00800048F
:1069000040F0020000F05CF8CCE7236820469B686A
:106910009847E3681C68ECE7002583E79024002093
:106920001C1803009C24002030180300801803006A
:10693000841903002DE9F34704460E46924601A947
:10694000012218469946FFF70DFE1B4F10B3019D1B
:106950004FF00008AA1CC84508EB020123D11748D4
:10696000002100F0B8FF80F31000000440EA14405A
:10697000E4006B1C04F03804DBB2EDB244F0010417
:1069800007EB8303033544EA881444EA8624D8607D
:1069900047F825403B781BB1FFF7C8FE0028FBD124
:1069A00002B0BDE8F087C9B207EB81015AF8283080
:1069B000CB6008F10108CEE790240020AC2800202D
:1069C00000231A46FFF7B6BF07B50123019201AABB
:1069D000FFF7B0FF03B05DF804FB07B5CDE9002376
:1069E00002236A46FFF7A6FF03B05DF804FB1FB55C
:1069F000CDE90123069B039301AA0323FFF79AFF26
:106A000005B05DF804FB000030B50F4CD4F810243D
:106A100003460020114631B9D96808714AB9C4F853
:106A200010340A6030BDC9680D79854206D0096806
:106A3000F1E7D26814680C601360F3E701300A28AC
:106A4000E8D14FF0FF30EDE79024002038B5084B37
:106A50000125D3F810441D7004B938BDE3685D7199
:106A6000236820465B689847E3681C68F4E700BF2A
:106A70009024002030B5C38885B004460D4633B15C
:106A8000144A00921449154A284600F0E9FF217A79
:106A900005291DD0637A4BB1A088FFF727FE104B64
:106AA000104953F82020284600F0DAFF227A0E4BD6
:106AB000A08853F8222003920021FFF7FBFD039AE0
:106AC0000A490346284605B0BDE8304000F0C8BF7B
:106AD00005B030BDC8190300B0190300A8190300A0
:106AE000341A0300CD190300581A0300D01903000B
:106AF00007B503460846197A052911D05B7A2BB1F0
:106B0000094A0A49019000F0ABFF01980849019039
:106B100000F0A6FF019803B05DF804EB00F095BF0C
:106B2000002AF8D0F2E700BFC8190300CD1903000E
:106B3000C51903002DE9F04385B01F460C9D0023C5
:106B400095F80C902B7306460C469046294638461D
:106B5000FFF790FFB8F1060F09D8DFE808F004123C
:106B6000181F283340003146284600F079FF0022E4
:106B700029463846FFF7BCFF85F80C9005B0BDE804
:106B8000F08322683146284600F06AFFEFE7D4E937
:106B900000233146284600F063FFE8E7A36800932E
:106BA0003146D4E90023284600F05AFFDFE7E368C6
:106BB0000193A36800933146D4E90023284600F0EE
:106BC0004FFFD4E723690293E3680193A36800931E
:106BD0003146D4E90023284600F042FFC7E7636945
:106BE000039323690293E3680193A36800933146FA
:106BF000D4E90023284600F033FFB8E708292DE93F
:106C0000F74F80460E4617461C463CD8002593F8A1
:106C10000C901D7319461046FFF72CFFDFF888A073
:106C2000DFF888B0AE4231D918F805205946204621
:106C300000F016FF0135082DF4D11949194DDFF880
:106C400070A0204600F00CFF4FF0000B5E4522D9EB
:106C500018F80B207E2A05D8104601920AF032F966
:106C6000019A00B92E225146204600F0F9FE0BF1A0
:106C7000010BBBF1080FE9D1012221463846FFF78D
:106C800037FF84F80C9003B0BDE8F08F51462046E2
:106C900000F0E6FECEE72946204600F0E1FEE6E7FA
:106CA000E4190300E2190300E0190300DA190300F4
:106CB000E6190300C30710B507D4F023054A4008BE
:106CC000145C23401943115410BD0901C9B20F23AC
:106CD000F4E700BF7829002030B5094B1C78094B38
:106CE000196800239C4202DC0022104630BD11F8D6
:106CF0003350854201EBC302F7D00133F2E700BF06
:106D0000482900208829002013B504460191FFF787
:106D1000E3FF38B143682BB10199204602B0BDE8CA
:106D20001040184702B010BD034B044819680022F8
:106D3000490800F050BA00BF4C290020502900201B
:106D400010B5C0B2FFF7C8FF0446007802F0ACFDF2
:106D500063785A1E53425341834208D1044BD3E90E
:106D60000023134303D1BDE81040FFF7DDBF10BD82
:106D70007029002037B54308374AD35CC2074CBF9F
:106D80001B0903F00F0304460D46042B25D8DFE84A
:106D900003F003262F3C4000F9B10121FFF78AFFE1
:106DA00000230DF107008DF8073000F03DFB0120B6
:106DB000A4F12003C4F12001284A20FA01F100FACD
:106DC00003F30B43A040D2E9004120430B43C2E947
:106DD00000039DF8070000F04BFB03B030BD002915
:106DE00018BF0221204603B0BDE83040FFF762BF64
:106DF00049B10321FFF75EFF0121204603B0BDE842
:106E00003040FFF781BF0121ECE70029E5D10421E3
:106E1000E8E709B10321E5E7FFF74CFF29462046E3
:106E2000FFF772FF0DF107008DF8075000F0FCFA34
:106E30000120A4F12003C4F12001084A20FA01F145
:106E400000FA03F30B43A040D2E9004124EA00001A
:106E500021EA0303BBE700BF782900207029002046
:106E60002DE9F041124E134F00243378A34208DC81
:106E7000114BD3E90023134318D0BDE8F041FFF7CD
:106E800053BF3D6805EBC40815F8340002F00CFD53
:106E900098F801305A1E53425341181A4142414159
:106EA00015F83400FFF766FF0134DEE7BDE8F08136
:106EB000482900208829002070290020092AF7B5D8
:106EC00005460C4616463ED902F026FCE8B11F4B9B
:106ED0001F481D601F4B204F1C70204B00211022AB
:106EE0001E600AF0ABF81E4B00200021C3E9000130
:106EF000013CE4B20326FF2C0DD11A4A1A480021A6
:106F000003B0BDE8F04000F05BB902F0C9FB002817
:106F1000DDD003B0F0BD9DF8063015F834008DF8D3
:106F2000046005EBC40223F007038DF8063001A9C5
:106F300093788DF805303A4602F0F8FB013CE4B254
:106F40000028D8D0E5E70720E3E700BF8829002024
:106F50007829002048290020416D02004C2900209A
:106F600070290020616E0200781A030070B5084D88
:106F7000084E00242B789C4201D3002070BD33685A
:106F8000012113F8340002F049FC0134F2E700BF9C
:106F900048290020882900201FB50021039001AA5C
:106FA00044F20100CDE9011100F004F805B05DF8EC
:106FB00004FB000038B572B6FFF748FDFFF7B6FBDB
:106FC0000028FBD1104B114C114D1249E41AE40872
:106FD000240444F00100FFF7F3FCD5F8F030DB07A0
:106FE00000D500BE0C4944F00200FFF7E9FCBFF3F6
:106FF0004F8FEA68094B02F4E0621343EB60BFF382
:107000004F8F00BFFDE700BF30180300801803005A
:1070100000ED00E07C1A0300881A03000400FA0562
:1070200010B58468C2688388121B934208D3C26873
:1070300013400268D154C3680133C360002010BDFF
:107040000420FCE78268C3689A420AD08268838879
:1070500013400268D35C0B708368013383600020A7
:1070600070470520704710B5D0E90243D1E902020C
:10707000A04272EB03032CBF0120002010BD0000D2
:1070800008B50A4800F027FB094AD2E90031C018C8
:10709000084BD3E9002341F10001904271EB030357
:1070A00003D210F1807041F1000108BD0C230020D3
:1070B00090290020082A002037B505460C460A48CA
:1070C00001A900F03CFB60B10570446001A90648CD
:1070D00000F05FFB18B1054800F002FB002003B090
:1070E00030BD0420FBE700BFF42900200C23002062
:1070F00038B5184B1B78044613B90025284638BD0F
:107100000028FAD0037F03F0FF05002BF5D0FFF72E
:10711000B7FFD4E90223904271EB030314D3236930
:1071200003B92377D4E90530984721690029E4D0D1
:10713000237F03F0FF05002BDFD0D4E902325B1878
:1071400042F10002C4E902320348214600F0B1FFD7
:10715000D4E700BF98290020A01A030013B500232C
:10716000ADF8043006238DF806300F490F48082388
:10717000582200F0D1FA044698B90D4A0D4801A9E9
:1071800000F09AF9044660B90A48012100F086FA35
:107190000123094A0748194600F0E8F9074B012284
:1071A0001A70204602B010BD9C290020F42900204E
:1071B000217202000C230020FFFF7F00982900208D
:1071C0003AB103685A614A1E514251411961002087
:1071D00070470720704738B5037F04460D4683B9D2
:1071E0008261FFF74DFF2369281841F10001C4E9CE
:1071F000020103B1256121460020BDE83840FFF7B8
:107200005BBF002038BD0023014603770120FFF754
:1072100053BF0000014800F05EBA00BF0C230020FD
:107220002DE9F347064600F041FA40B1584AD2E949
:10723000003113F1807341F10001C2E900310021F6
:10724000304600F042FA38B1524C236823B120682E
:10725000FFF74EFF002323600121304600F035FA8E
:1072600020B1FFF70DFF4C4BC3E900014B48494DDE
:107270004B4C4C4F01A900F09CFA002842D1DFF89A
:107280002081444CDFF82491404600F028FF236819
:10729000002872D07BB12368D0E90252D3E90213EF
:1072A0008D4272EB03032AD223681B7F1BB1216836
:1072B000404600F0FEFE404600F00BFFD0E9027AA7
:1072C0000546FFF7DDFE381A6AEB010A01287AF15C
:1072D000000345DBB0F5D40F40D3FFF79BFF324AE4
:1072E00002444FF416030021484600F05FF90028DD
:1072F0003ED1236813B9304600F030F9256002B062
:10730000BDE8F0870378012B1DD0022B09D14FF087
:107310000008204600F0DDFE002836D080F81C80F2
:10732000F7E73BB941680B7F23B901230B77204670
:1073300000F0BFFE01A9194800F066FA01A917483C
:1073400000F037FA99E741682B68994202D100238F
:107350002B60EFE7204600F0C5FEEBE7AA68C0E728
:107360000021484600F0A7F92846FFF7C1FE01E0DA
:107370000D28F9D00023236086E7002BBFD13046CB
:1073800002B0BDE8F04700F0EDB801233B70D1E753
:1073900090290020102A0020082A0020F42900202B
:1073A000A01A030098290020FFFF69000C23002089
:1073B0000648074A03780749D35C012213B1043019
:1073C00002F0DEBB0C3002F077BB00BF14230020BC
:1073D000202B0020242A002010B501460E48FFF77C
:1073E0001FFE0446A8B90D480D4A0378D35C63B16B
:1073F000043002F0B9FB60B90A490748FFF722FEE2
:1074000038B9BDE81040FFF7D3BF0C3002F048FB9D
:10741000F1E7204610BD00BF142A002014230020ED
:10742000202B0020242A002070B5EFF3108672B6BE
:107430000C4A946801239CB993600B4B0B4DD3F815
:10744000801029401160C3F88050D3F88410516037
:107450004FF0FF32C3F88420047006B962B670BDE5
:107460000370FAE7282A002000E100E0FC06FFBDD7
:10747000084B9A6810B55AB150B9EFF3108172B643
:10748000054A1C6814605C685460986001B962B673
:1074900010BD00BF282A002000E100E0435882B060
:1074A0003BB10023435043580193019B012002B09C
:1074B00070471846FBE70000F8B5204B4479204E92
:1074C00043F824201F4A204B06EBC4049B1A227960
:1074D000DB081B0432B143F002001C49FFF770FACD
:1074E0000820F8BD02680C88C2F8084590F90450DD
:1074F0008A7804795201002DD2B219DB14494F1950
:1075000087F8002301226D0904F01F0402FA04F435
:1075100041F82540427906EBC201012446F83200C9
:107520000C7143F003000B49FFF74AFA0020D8E73B
:10753000094904F00F040A55ECE700BF3C2A00207B
:10754000342A00203018030090180300AC1A0300FE
:1075500000E100E0CE1A030014ED00E00368012210
:107560001A607047036801225A60704773B501F1D1
:107570005005AD000068ADB24FF480348C40002659
:10758000C0F80843C0F84843465101F5A871455971
:10759000019522F07F42019D40F82120C0F844432C
:1075A0000BB1C0F8044302B070BD00002DE9F74FE5
:1075B0000D4622F07F4402684FF4803705F15006F3
:1075C0008F408046B60002EB8500C2F84873B6B221
:1075D000C2F80873D2F8041599464FF0000BD0F8A2
:1075E0004035C0F8401542F806B05B1A9259009237
:1075F00023F07F43012B009A4FEA850A0CD1264BDA
:107600004FF4806043F001039847D8F8003043F806
:1076100006B09B590193019BD8F80010D1F804657E
:10762000C1F84473A31B23F07F43012B1CD11A4BD9
:1076300005F5A875013443F0010341F825404FF4E6
:1076400080609847D8F80030D3F804359E4209D1BD
:10765000D8F800300020C3F84473C3F8047303B0B3
:10766000BDE8F08F0D20FAE78A44C9F1FF13CAF88C
:107670004045D1F80405221A013A22F07F4203F571
:107680007F439342EED3002AE2D10134CAF8404549
:10769000D1F804359842DAE7E01A030003680222C1
:1076A000C3F8442309B1C3F80423704700684FF4BA
:1076B0008271FFF7F3BE4FF4803303FA01F10368E0
:1076C000C3F84813C3F808137047503189000068A5
:1076D00089B2FFF7E3BE0368D3F8040570470000E2
:1076E00090F90430002B09DB5A09012103F01F0334
:1076F00001FA03F34032024941F82230704700BFDB
:1077000000E100E0024B034A1B681068184700BF05
:107710003C2A0020342A002010B561B1B2FBF3F4FA
:1077200003FB1424A4B244B9C0E90014846082812C
:10773000C381204610BD0E20FCE70920FAE737B5CB
:1077400050E8013F9DB2C48925448489A54228BFE1
:107750002D1B0489A54202BFBFF32F8F002207E033
:10776000C5EA030540E80154002CE9D14FF00102BD
:107770008DF803200193019A0A609DF8031001F02F
:10778000FF0321B1006810FA82F003B030BD184643
:10779000FBE70A884B889A4209D150E8012FC2EAD8
:1077A000024240E80123002BF7D10120704700205E
:1077B000704737B550E8023F1FFAA3F5C488A542C9
:1077C00002BFBFF32F8F00220DE0C48925448489B6
:1077D000A54228BF2D1BC3EA054540E80254002CF2
:1077E000E8D14FF001028DF803200193019A0A605D
:1077F0009DF8031001F0FF0321B1006800EB124077
:1078000003B030BD1846FBE70A884B889A4209D17D
:1078100050E8022FC2EA224240E80223002BF7D1AF
:10782000012070470020704701F01F024B09012121
:10783000914000EB830000F065B84B0910B501F0F2
:107840001F040121A14000EB830000F04FF8E0404D
:1078500000F0010010BD01F01F0301229A404B0906
:1078600000EB8300D14300F065B84B0901F01F0124
:1078700050F82300C84000F0010070472DE9F047A0
:107880004F1E7F0980460E460137002558F82540D7
:1078900008EB8509E44394FAA4F4B4FA84F44FEABB
:1078A000451A202C06D10135AF42EFD83446204688
:1078B000BDE8F0875444A642F5D921464046FFF77B
:1078C000BCFF0028F3D0D9F80040E44394FAA4F4B4
:1078D000B4FA84F4E5E710B5034653E8000F0A460E
:1078E00043E8002494F0000FF7D110BD10B5034613
:1078F00053E8000F40EA010243E8002494F0000F2F
:10790000F6D110BD10B5034653E8002F42EA01003E
:1079100043E8000494F0000FF6D110BD10B5034603
:1079200053E8000F00EA010243E8002494F0000F3E
:10793000F6D110BD10B5034653E8002F02EA01004E
:1079400043E8000494F0000FF6D110BD10B50346D3
:1079500053E8000F00EB010243E8002494F0000F0D
:10796000F6D110BD10B5034653E8002F02EB01001D
:1079700043E8000494F0000FF6D110BD10B50346A3
:1079800053E8002FA2EB010043E8000494F0000F3D
:10799000F6D110BD0121FFF7B5BF0021FFF7BEBF33
:1079A00010B590B1D0E9012301689B1ADBB20A60DF
:1079B000013BDBB2FF2B026802D10020107110BD29
:1079C00011684C1C14600B70F2E70E20F7E737B516
:1079D000054600240DF107008DF80740FFF724FD50
:1079E0002A686B68116899420ED9481E106011F818
:1079F000013CEC68298A01FB0344AB6811791B1A2E
:107A0000DBB2994238BF13719DF80700FFF730FDD4
:107A1000204603B030BD37B5054600230DF1070001
:107A20000C468DF80730FFF7FFFC2A681368591CD5
:107A30001160E968641A298AB4FBF1F41C709DF89E
:107A40000700FFF715FD03B030BD826810B504468E
:107A50002AB143690168006998470023A36010BDFB
:107A60000EB403B5039921B104AB01AA019300F050
:107A70006FF802B05DF804EB03B07047826830B471
:107A80000468551C8560A154D0E901329A4202D3A2
:107A900030BCFFF7DABF30BC704700002DE9F84F6B
:107AA0009846DDE90A43154682460F460A464FF0DE
:107AB0000109AA420FD2C14538BFC14613F0010BDC
:107AC00001D16CB900240126B8F1010F1BD908F1CE
:107AD000FF386E43F8E709F10109B2FBF5F2E8E778
:107AE0009B070ED5B8F1000F0CBF30262026A1450C
:107AF000E9D2013C31465046FFF7C0FF002CF6D1D9
:107B0000E0E72026F3E7B7FBF6F39D42E1D9DFF883
:107B10003C80B7FBF6F3504618F8031006FB1377CA
:107B2000FFF7ACFF3346AB42B6FBF5F6F1D2BBF143
:107B3000000F02D00CB1A14501D3BDE8F88F202180
:107B40005046013CFFF79AFFF4E700BFE61A030036
:107B50002DE9F74F054617468846002900F03E817B
:107B600018F8011B49B92B7B002B00F03781284600
:107B700003B0BDE8F04FFFF768BF252940F0B7809C
:107B8000002698F800302D2B424608F1010823D03A
:107B9000302B24D02B2B25D000242A2B02F10101DD
:107BA00023D13B681A1D1B683A601C440A461378AF
:107BB0002E2B26D101324FF0000A104610F8011B7F
:107BC000A1F1300CBCF1090F1DD80A2303FB0A13E5
:107BD000A3F1300A0246F0E746F00106D1E746F08D
:107BE0000206CEE746F00406CBE711F8013CA3F10C
:107BF00030000928DBD80A2202FB0434303C0A4654
:107C0000CBE74FF0000A12F8011B01F0FB006828D7
:107C10009046F8D0782909D86F290CD8632962D00A
:107C200022D8252963D0582900F0888098F80030A0
:107C3000002B95D197E770390829F7D801A353F89D
:107C400021F000BFB77D02002D7C02002D7C0200D8
:107C50004D7D02002D7C02002B7D02002D7C020058
:107C60002D7C02003D7D0200642901D06929DDD10F
:107C70003A68D2F80090111D89EAE9723960A2EBE6
:107C8000E9724FF0010B092A35DCD34538BFD346E2
:107C90002CB1B9F1000F01DB720700D5013CB3072D
:107CA00002D5BAF1000F03D0F00701D44CBB002479
:107CB000B9F1000F2DDAC9F100092D212846FFF78F
:107CC000DDFE06F00302022A04D1BAF1000F01D151
:107CD0001CBB0024CDE9004653460A2249462846EB
:107CE000FFF7DCFEA2E73B681A1D19783A602846C8
:107CF000FFF7C4FE9AE70A230BF1010BB2FBF3F284
:107D0000C1E7A345D4D220212846013CFFF7B6FEA7
:107D1000CCE77107D5D52B21D0E7A345DAD23021A6
:107D20002846013CFFF7AAFED2E73968CDE90046B4
:107D30000A1D3A6053460A220968D0E739680A1DCD
:107D40003A60CDE9004653461022F5E73B681A1D1C
:107D50003A6016F00106D3F8009024D1B9F1000F73
:107D600003D0484609F0BFF90646B4421DD809F1D0
:107D7000FF3919F8011F00293FF458AF2846FFF7D3
:107D80007DFEF6E728460136FFF778FE19F8061063
:107D90000029F7D1A642BFF449AF20212846013C73
:107DA000FFF76CFEF6E70026F0E720212846013CAD
:107DB000FFF764FED9E73B681A1D3A603021284678
:107DC0001C68FFF75BFE78212846FFF757FE00226C
:107DD0000823CDE900322146102280E703B0BDE838
:107DE000F08F00BF2DE9F84FB0F806A04579D2F822
:107DF00000B09DF828900AFB05F5043D88460BEB82
:107E00000301A94203F1040488BFA5EB030BB4FBF3
:107E1000FAF607460AFB1644C2F800B04EB9AAEBC0
:107E200004055D4528BF5D46BBF1000F04D1BDE8E8
:107E3000F88F3F68013EF1E7043408EB06003C444C
:107E40002A46B9F1000F0DD02146ABEB050B09F026
:107E5000CCF8DA452E443F6855464FF0000428BF61
:107E60005D46E1E701462046EFE7FFF799BDF8B52B
:107E700046790146721E0546002393422D6803D3BE
:107E80000024A64202D8F8BD0133F6E70F68284661
:107E9000FFF7C1FD01343946F3E72DE9F843068ABF
:107EA000CD1C0746FFF793FD043E35440446B5FB61
:107EB000F6F5F0B14FF48073EDB28380C680013DDA
:107EC000076081464FF00008A84512D23846FFF7F8
:107ED0007EFD064648B163790133637108F10108FC
:107EE000C9F8000007608146EEE72046FFF7BFFFB4
:107EF00034462046BDE8F88301210430FFF732BD47
:107F000010B5012104460430FFF738FDC0B220B996
:107F10002046BDE81040FFF7AABF10BD1FB5039271
:107F20000022009203AAFFF75DFF05B05DF804FB95
:107F30001FB503920122009203AAFFF753FF05B079
:107F40005DF804FB33DF704741DF7047064B10B527
:107F500000241C70054B1C60BFF35F8F044905486B
:107F600000F091F8204610BD492A00204C2A00203C
:107F7000001B0300402A002007B500230DF1070075
:107F80008DF80730FFF750FAF1EE103A23F09F0317
:107F9000E1EE103ABFF35F8F0A4B4022C3F8842111
:107FA0009DF80700FFF764FA08F05EFA20B103B00D
:107FB0005DF804EBFFF7C8BF20BF40BF20BF03B090
:107FC0005DF804FB00E100E070B5244D044601219A
:107FD0002846FFF780FCBFF35F8F38B9042C0AD026
:107FE0001F4B1A781AB1BFF35F8F286070BD1D4A0E
:107FF000147001221A701C4C1A4E6368BBB9FEF74C
:1080000025FDFEF793FB0028FBD1164B1B78023BA6
:10801000012B15D8BFF34F8F1449154BCA6802F4D2
:10802000E0621343CB60BFF34F8F00BFFDE71B68D7
:10803000307898470028D6D0204600F02EF8DCE7AC
:1080400008F012FA08B1FFF77DFF4FF080430122DC
:10805000C3F80025BFF34F8F20BFFDE74C2A002057
:10806000492A0020482A0020402A002000ED00E094
:108070000400FA05836800225A60C3E904229A606A
:10808000DA601A6070470B684A684360934208BF21
:108090000023016008BF43607047436843B1026832
:1080A000916852680B449342436004BF00234360CD
:1080B000704770B5446806460D46206818B1B3682D
:1080C0002946984718B923682B60256070BD24683D
:1080D000F3E74368186808B102681A60704743689C
:1080E000186870474368186800B97047884203D120
:1080F00002681A600120704703460068F4E7000038
:1081000010B50D49A1F59472914201D800200FE0FD
:108110008C1AE30F03EBE4035B1002EBC30452F889
:108120003330834205D802D204F10802ECE76068DC
:1081300010BD2146E8E700BF0C20030008B5FFF79B
:10814000DFFF024B002808BF184608BDCF1E030002
:1081500070B5064D0646002455F8043B0BB1304679
:1081600098470134042CF7D170BD00BF5C2A002071
:108170004388033300EB830399420BD382884FF685
:10818000FF739A4208D0038833B18068431C584279
:10819000584170470220704701207047033080B279
:1081A00040F2FE33984230B51FD8134B1A783AB9D3
:1081B0001C895D892C440444A4B2B4F5806F0AD9AB
:1081C0001A7DAAB99A8BDC8B2244024492B2B2F592
:1081D000806F0DD801220A801446142202FB04335A
:1081E0005A8910445881002030BD48F20860FBE7EE
:1081F00048F20660F8E700BF902A00200B4A0C49BD
:108200005388142000FB0311CB6833B9042049685C
:1082100010700122074800F085BD0749052313703F
:1082200002238B80012209680023F3E7742A0020CF
:10823000902A0020F0220020CC2A002007B500233D
:1082400005490093054A09680548082300F0D0FC59
:1082500003B05DF804FB00BFCC2A00201820030007
:10826000F022002007B5002301460093034A04488A
:10827000082300F0BDFC03B05DF804FB10200300F0
:10828000F022002013B500230C4600930146084A53
:108290000848042300F0ACFC38B9074B142101FB5B
:1082A000043101230B7402B010BD48F20D60FAE7EF
:1082B0000C200300F0220020902A002037B50A4845
:1082C0000A4B42689C88196853880325033305705C
:1082D0009BB2002000909B0001EB8401044800F059
:1082E00087FC03B030BD00BF742A0020CC2A0020D8
:1082F000F022002010B501460448FFF720FA1C22A6
:108300000446002108F09AFE204610BDB82A00203D
:1083100038B5144B14220D4602FB00302B6844681C
:1083200004F58051A3B15C88033403EB84048C42D0
:1083300015D22368013312D02046FFF719FF012818
:1083400008D002280BD00028F1D12C60012038BDC4
:108350000834ECE76388033304EB8304E7E7002089
:10836000F5E700BF902A0020426873B504460D4629
:108370006AB3234BD9688A4229D31B699A4226D80B
:1083800012F0030323D11F490089098988421ED1B5
:108390002068916888421AD11B4841688A4203D9F3
:1083A00001F580518A420DD381698A420CD901F5C9
:1083B00080518A4208D201222A80B3FA83F0400910
:1083C00002B070BD1A46F7E748F20963F5E70026E8
:1083D0002E800196288801A9FFF79AFF30B92B88D3
:1083E00001339BB2012B2B80F3D9E9E7019B226873
:1083F00099689142EED16360024B1B892381DFE7CC
:10840000F0220020742A0020902A00202DE9F84351
:108410001C461D4B1B7806460F46154673B382B3A8
:108420007CB3DFF86C804FF01409A388012B02D9CC
:1084300048F2096020E009FB03F318F803302BB978
:10844000A0882146FFF764FF20B92060A38801338C
:10845000A380EAE723681EB1998832889142EFD160
:108460001FB119883A889142EAD19A68C5E9002378
:10847000064B1B892B810020BDE8F88348F2016080
:10848000FAE748F20460F7E76C2A0020742A00201B
:10849000902A002008B5074B5888191DFFF738FFB0
:1084A00018B1BDE80840FFF709BFBDE80840FFF775
:1084B000A5BE00BF742A00202DE9F047A24FDFF8C7
:1084C000AC8288B006463B6823B9A0484146FFF716
:1084D00070F938603D6829784B1E052B07D8DFE816
:1084E00013F020007A007A000C010C01640148F2BC
:1084F0000E641422002103A808F0A0FD41F61D53CC
:108500009C4208BF00243B6804941A78023A042A6B
:1085100000F20282DFE812F0E301EF01110219021A
:1085200020022EB18A4B00225A604FF40644E0E745
:108530002B79032B1CD8DFE803F014022A35854A77
:108540001378022B1AD0137D022B4FF0010317D1A1
:1085500014214B43D1180020D0544868FFF782FE05
:1085600003E001232B71FFF769FE002800F0BF80B4
:10857000774B00225A6048F20D64BAE70023E7E720
:10858000734A13700023536041F61D54B1E77249DA
:108590007248002302222B718A800968012200F0B0
:1085A000C1FBE2E76C4C00262E712068FFF75AFEF3
:1085B0006B4BDFF8A0C15B882568142253430CEB9A
:1085C00003020CF8036051685560A58815810222EA
:1085D0002160A280C9E7B5F814A0AA7DDFF87491E4
:1085E000AEB1022AEB8806D9142101FB0A91DA1CEC
:1085F000088902440A81142202FB0A99C3F57F43C9
:10860000B9F80A20FD331344A9F80A308DE7142382
:1086100003FB0A9318895C6804EB8004062A69D876
:10862000DFE802F0274E36441D5A040041F61D547F
:10863000AA7DEB88022A06D9142101FB0A91DA1CD3
:10864000088902440A81142202FB0A99C3F57F4378
:10865000B9F80A20FD331344A9F80A3049E7414824
:10866000414900234360AB690360FFF77DFE0028AA
:108670005BD00223AB75002300930423EA18214644
:10868000364800F0B5FA002831D048F20D64CFE743
:108690002B69002B14BF03230123AB750023009328
:1086A00005F10C02042304F10801E9E70123AB758D
:1086B0000022EB8800922A699B0004F10C01DFE79D
:1086C00003290CBF05230623AB7500230093042365
:1086D00005F10802E118D3E70623AB75224B198890
:1086E000204B5868FFF7CEFD04460028A0D108B003
:1086F000BDE8F08748F20E649AE7002E7FF415AFCC
:108700002B79012B34D0022B3FF43EAF002B7FF4AA
:10871000EEAE02232B710DF10A01EB68039303A85F
:10872000CDE90466FFF720FE10B948F20964E0E6DF
:108730000498BDF80A108388EB8003882B81FFF72B
:10874000A1FD044627E000BF8C2A0020B82A0020A3
:108750006C2A0020902A0020CC2A0020F022002041
:10876000742A0020502A0020D42A0020842A0020C5
:108770007B4B03AA3146A81DFFF748FE784B044601
:1087800068B999880498FFF77DFD044648F20963AB
:108790009C423FF4F9AE002C7FF4ABAEA7E7082271
:1087A0003146184608F04AFCF0E7002E7FF4BDAED3
:1087B0006C4B1A7BB2B11E731A78013A062A3FF647
:1087C00096AE01A151F822F0738802009988020048
:1087D000B7880200BD880200EF840200C38802004F
:1087E000D58802001A78072AE6D801A151F822F0AC
:1087F00011880200B9870200B98702003788020099
:108800004B8802006F8802006F88020033880200E4
:108810001A89554901321A8100225A801A730A783E
:10882000B2FA82F252099A720A7DB2FA82F25209BF
:10883000DA72012207E04D4958688A88408803327D
:1088400002448A8002221A70B6E75C88464A474989
:10885000142505FB0422086854685060888810813C
:1088600002200C608880002111740622EBE70722A9
:10887000E9E79A7A32B9DA7A8AB900221A705A800C
:108880005A6081E6384900229A72CA68002AF2D1F9
:10889000097C0029EFD05A80FFF7FCFD51E7002248
:1088A000DA72314A116A0029E7D192F82420002AAD
:1088B000E3D00122EFE7FFF701FD42E7FFF79EFC5F
:1088C0003FE75A88284B142101FB02335868FFF711
:1088D000C9FC36E700225A60FFF7B0FC31E70122FD
:1088E0008DF80C201A89ADF818209A88DB68ADF84D
:1088F0001A20059310E002228DF80C201A89ADF899
:1089000018209A88ADF81A20DA689B7D05929A1F84
:10891000534253418DF81C3003A8FFF719FC002681
:10892000414613483E60FEF76FFF12480121FFF7F2
:1089300025F800287FF4C7ADD9E603228DF80C2076
:10894000DA88ADF818201A89D0E704228DF80C20B7
:10895000DB88ADF81830DFE705238DF80C30DBE756
:10896000D82A0020742A0020902A0020CC2A002037
:10897000B82A0020C82A00204068FFF79DBD0000EB
:1089800008B505480121FEF7E1FF18B9BDE8084028
:10899000FFF792BD08BD00BFC82A00202DE9F341B2
:1089A0009846374B1B7806460D46002B5CD00029B5
:1089B0005DD009884FF6FF7399425BD06B88002B1E
:1089C00058D06B689B0758D14AB92F890DF1020125
:1089D0003846FFF7E3FB30B102B0BDE8F081138801
:1089E0005788ADF8023001A8FFF784FC044660B94F
:1089F000BDF80220234B142101FB023358890338B0
:108A0000C01B588148F20760E6E780F80080002329
:108A10008375BDF8023083826B68036101211A48B7
:108A2000FEF7A0FF2B882381B8F1030F6B88A3808A
:108A300004BF0423A3754FF0000508BF3368E0604E
:108A400008BFA3611148E780658101A9FEF7A1FE77
:108A500036B1E36833600E4B75601B89B5723381A4
:108A6000FFF78EFF0020B7E748F20160B4E748F255
:108A70000460B1E748F20360AEE748F20260ABE79A
:108A80006C2A0020902A0020882A0020B82A002082
:108A9000742A002073B50D460446C8B1C1B10DF16A
:108AA0000601FFF761FCB0B1BDF806300B486668FF
:108AB000142202FB030001210C30FEF753FF636810
:108AC0002E600C336B600123A372002002B070BDD6
:108AD00048F20460FAE748F20960F7E7902A0020BC
:108AE00013B50446A8B10DF10601FFF73DFC98B19E
:108AF000BDF806200B4B142101FB0233DA6872B17A
:108B0000A27A62B1DA680020013ADA60A07202B09B
:108B100010BD48F20460FAE748F20960F7E748F24E
:108B20000560F4E7902A002002230022FFF736BFF9
:108B300018B103230022FFF731BF48F204607047E9
:108B4000114B1B7813B50446ABB14FF6FF73984237
:108B500014D001A8FFF7CEFB98B1052303700123C1
:108B60000371C48001A90948FEF713FEFFF708FF4F
:108B7000002002B010BD48F20160FAE748F203603D
:108B8000F7E748F20760F4E76C2A0020B82A0020D3
:108B900007B5ADF80600ADF804100DF1060001A907
:108BA000FFF734FC03B05DF804FB07B51346ADF8DE
:108BB00006000A4600200DF10601FFF727FC03B06E
:108BC0005DF804FB07B51346ADF806000A460DF143
:108BD00006000021FFF71AFC03B05DF804FB20B18A
:108BE00019B103680B600020704748F204607047B9
:108BF0002DE9F743DDF8288088B93E4B3E483F4ACF
:108C0000C01AC0080E243E4B009400043D4940F0B9
:108C10000100FDF7ECFE204603B0BDE8F0834AB941
:108C2000344B3548384AC01AC0080E24344B0094DF
:108C30000004EBE7D0F800E0BEF1000F09D12D4BA6
:108C40002D48324AC01AC00808242D4B0094000455
:108C5000DCE74BB9274B28482D4AC01AC008092425
:108C6000274B00940004D1E74568D5F80490B3FB86
:108C7000F9F509FB15354DB11E4B1F48254AC01AA1
:108C8000C00809241E4B00940004BFE78D0709D0DB
:108C9000184B1948204AC01AC0081024184B0094D9
:108CA0000004B3E712F0030F09D0124B12481B4A1D
:108CB000C01AC0081024124B00940004A6E7C5682F
:108CC000A9420DD34D1EEC180569AC4208D8CDF869
:108CD0002880DEF80C40A44603B0BDE8F0436047AE
:108CE000044B05480E4AC01AC0081024044B0094D7
:108CF00000048BE730180300B8180300202003009D
:108D0000C921030025200300A22003004E200300F8
:108D100061200300A8200300D2200300EA20030002
:108D20000D210300F7B580B92A4B2B482B4AC01AF6
:108D3000C0080E242A4B009400042A4940F0010088
:108D4000FDF755FE204603B0F0BDD0F800C0BCF1E1
:108D5000000F09D11F4B2048234AC01AC00808241D
:108D60001F4B00940004E8E74AB91A4B1A481F4AFF
:108D7000C01AC00809241A4B00940004DDE74568B6
:108D8000D5F800E00EF1FF350D4209D0114B124825
:108D9000174AC01AC0081024114B00940004CCE7F5
:108DA000C568A9420CD34D1E0EFB02540569AC42A6
:108DB00006D8DCF81040A44603B0BDE8F040604798
:108DC000044B05480B4AC01AC0081024044B0094F9
:108DD0000004B2E730180300B81803002020030095
:108DE000B6210300252003004E200300612003006C
:108DF000342103005A21030029DF704728DF704720
:108E000070B503689E6886B004460D466EB11422A4
:108E10000021684608F012F9A368059323790195AB
:108E20002BB1012B0DD06846B04706B070BD0123B1
:108E30008DF8003023690293E36803936369049318
:108E4000F1E702238DF80030E3681B030293F5E796
:108E5000034B187A0122B0FA80F05A744009704727
:108E6000F02A002038B5234D234C2B7A3BB92349F7
:108E70002348FEF79EFC206008B9686038BD0223D5
:108E800024682B72237973B1012B24D0204603214F
:108E9000FFF7B6FF00232B726B6018491848BDE836
:108EA0003840FEF7B1BCD4E90523D21AB2F5805F91
:108EB000D4E9031028BF4FF480529208012A38BF2A
:108EC000012219441844FFF797FF50B11128DDD152
:108ED00001232B72D2E7D4E903031844FFF78EFF76
:108EE000F3E72B7C002BC9D1BDE83840022000F00D
:108EF00009B800BFF02A0020082B0020042B002016
:108F0000E02A002038B5234C237A002B41D0022BD5
:108F100009D1032830D0204B00221B68E2601A7967
:108F20003AB1012A22D0637C7BBBBDE83840FFF711
:108F300099BFD3E905128D1AB5F5805F94BF521918
:108F400002F580529A619142EDD102284FF0000360
:108F500008BF19462372104B18BF0D211868FFF780
:108F60004FFF0E490E48FEF74FFCDCE71A6901324D
:108F70001A615B699A42E7E7E3680133082B01D87D
:108F8000E360D0E70023E360DFE7BDE8384007F0A7
:108F90005BBA38BDF02A0020082B0020042B0020EB
:108FA000E02A0020831E012B01D8FFF7ABBF7047DA
:108FB00000F0FD03012B08D1044B00225A74421E1D
:108FC000504250411874FFF74DBF7047F02A0020FF
:108FD000BFF34F8F0549064BCA6802F4E0621343A2
:108FE000CB60BFF34F8F00BFFDE700BF00ED00E097
:108FF0000400FA054FF08053D3F83001421C04BF3F
:109000004FF0704393F8E00F831F58425841704768
:109010004FF0704393F8E02F062A09D1D3F8E83FC8
:10902000C3F30313033B032B02D8024AD05C7047FF
:1090300000207047E421030008B5FFF7DBFF40B1D3
:109040004FF080539A4AD3F82433C3F30423C2F871
:109050004035FFF7DDFF10B1964B974A5A67FFF78F
:10906000C9FF48B14FF080534FF08042D3F84432EB
:10907000C3F34233C2F83C35FFF7CAFF30B18F4A21
:10908000D2F8FC3023F08073C2F8FC30FFF7B2FF57
:1090900040B14FF080430022C3F80C21C3F81021E7
:1090A000C3F83825FFF7B4FF20B14FF08043032207
:1090B000C3F8A025FFF7ACFF60B1814B0522C3F8D0
:1090C00010260122C3F888260022C3F818263F2262
:1090D000C3F814264FF08053D3F83021501C09BF39
:1090E0004FF07043D3F8343193F8E02FD3F8E83FD2
:1090F00008BFC3F30313062A4DD1033B032B03D848
:10910000704AD35C002B46D04FF080526E4BD2F8A1
:109110000414C3F82015D2F80814C3F82415D2F8A3
:109120000C14C3F82815D2F81014C3F82C15D2F873
:109130001414C3F83015D2F81814C3F83415D2F843
:109140001C14C3F84015D2F82014C3F84415D2F803
:109150002414C3F84815D2F82814C3F84C15D2F8D3
:109160002C14C3F85015D2F83014C3F85415D2F8A3
:109170003414C3F86015D2F83814C3F86415D2F863
:109180003C14C3F86815D2F84014C3F86C15D2F833
:109190004424C3F87025FFF72DFF48B14FF08053EA
:1091A0004FF08042D3F8583203F04F03C2F8E43E48
:1091B000FFF720FF48B14FF08043D3F80024D107D8
:1091C00044BF6FF00102C3F800244FF08053D3F87E
:1091D0003021062A0ED1D3F83431033B032B02D8B9
:1091E0003A4AD35C33B13A4AD2F83C3743F480630D
:1091F000C2F83C37314AD2F8883043F47003C2F8E1
:109200008830BFF34F8FBFF36F8F4FF01023D3F829
:109210000C22D2071DD52F4B0122C3F80425D3F809
:109220000024002AFBD04FF01022D2F80C3223F099
:109230000103C2F80C32274BD3F80024002AFBD0DC
:109240000022C3F80425D3F80024002AFBD0FFF73E
:10925000BFFED3F80022002A03DBD3F80432002B30
:1092600022DA1C4B0122C3F80425D3F80024002A7B
:10927000FBD04FF010221521C2F80012D3F80024C1
:10928000002AFBD04FF010231522C3F80422114B03
:10929000D3F80024002AFBD00022C3F80425D3F819
:1092A0000024002AFBD0D2E70B4B0C4A1A6008BD01
:1092B0000030014000C007400DF0ADBA00ED00E005
:1092C00000500040DC21030000C00040E02103000A
:1092D0000010004000E00140282300200090D0034F
:1092E0004FF0A043D3F80405C0F3800070474FF05F
:1092F000A0430422C3F8082570474FF0A04304227E
:10930000C3F80C2570474FF0A0430422C3F80C2586
:1093100070474FF0A0430422C3F8082570474FF070
:10932000A042D2F80435D94301F0040103F004034C
:10933000C2F80815C2F80C3570474FF0A043D3F8B7
:109340001005C0F3807070471E3818BF4FF0FF3013
:109350007047C20708B506D54FF0A0430322C3F8F3
:109360000827FFF7D0FF830742BF4FF0A043042236
:10937000C3F8782708BD000038B5074C051E04F176
:10938000080318BF1C4623682BB11A6822605B686B
:1093900028469847F7E738BD142B002020B9054B25
:1093A00001225A70FFF7E8BF012802D1014A9070EC
:1093B000F8E770470C2B002020B9034B01225A70AC
:1093C000FFF7DABF704700BF0C2B002038B50E4CFA
:1093D0002378B3B90D486360A3602361E36000F0B4
:1093E000B5F8054607F040F808B900F0BBF80123CE
:1093F0002370074BD3F800340BB10123A370284628
:1094000038BD8525F5E700BF0C2B00209D93020099
:109410000000014037B5184CA378054603F0FF0261
:109420009BB110B143680120984700230DF107005C
:109430008DF80730FDF7F8FFE3689DF8070001336A
:10944000E360FEF715F803B030BD0DF107008DF8AD
:109450000720FDF7E9FF25B1226913463BB92A60D1
:109460002561E368002BE7D100F08EF8E4E79D4228
:10947000F7D01B68F2E700BF0C2B002037B50D4C6E
:1094800000230DF107008DF80730FDF7CDFFE368ED
:10949000013BE360E36833B9074BD3F8005415B9D7
:1094A00000F09AF8A5709DF80700FDF7E1FF03B002
:1094B00030BD00BF0C2B002000000140012813B577
:1094C0000CD0032820D038B9134B0122C3F88020D8
:1094D000BFF34F8FBFF36F8F02B010BD0F4C00234F
:1094E0000DF107008DF80730FDF79EFF23780BB9CB
:1094F000FFF76CFFE3689DF807000133E360012389
:10950000A370FDF7B5FFE7E700F02CF802B0BDE867
:109510001040FFF7B3BF00BF00E100E00C2B0020BC
:1095200008B506F0A1FF28B94FF08043D3F818041E
:10953000C0F3004008BD00F18040002382B003600A
:1095400003680193019B02B070470000044A13793D
:1095500023B901211060918018467047852070471B
:10956000242B0020074B1A68D20704D4C02283F8AA
:10957000002301221A604FF080430122C3F818250E
:10958000704700BF00E100E038B54FF48270FFF78C
:10959000D2FF4FF080430222C3F804230C4AD2F8D2
:1095A000FC0040F08073C2F8FC300A4B1C6844F0A9
:1095B000010119605D685968491BB1F50A5FFAD36A
:1095C0001C604FF08043C2F8FC0001229A6038BD55
:1095D00000ED00E0001000E04FF0804208B50223EB
:1095E000C2F808334FF48270FFF7A5FF0123D36060
:1095F000D2F81834DB03FBD408BD00004FF08041E3
:1096000010B5D1F8003163B14FF48070FFF793FFCC
:109610000D4B58790122C1F8082310B95A711B6803
:1096200098474FF08042D2F8043163B14FF4827012
:10963000FFF781FF0223C2F80833034BBDE8104057
:109640001B680120184710BD242B002000F180402A
:1096500000F5C040002382B0036003680193019BC2
:1096600002B07047800000F1A040D0F8002722F43B
:109670004032C0F80027D0F8003743EA0141C0F873
:1096800000177047054B4FF0FF32072843F82020A2
:1096900084BFC01880F84820704700BF2C2B0020E2
:1096A00010B5194C94F8583063BB4FF0FF3222FAD2
:1096B00003F1C90748BFE11803F1010348BF81F86E
:1096C0003020202BF3D10021C8B20131FFF7DAFF9F
:1096D0000C29F9D1042200210C4807F0AFFC0C4BF7
:1096E000402283F806231A604FF4BE70FFF7AEFFE6
:1096F000084B4FF00042C3F80423012384F858308C
:10970000002010BD0820FCE72C2B0020802B00201F
:1097100000E100E000600040034B93F8580000387F
:1097200018BF0120704700BF2C2B0020F0B5394E28
:10973000331893F93030002B69DA8D78C5F3400582
:10974000002D0BBF082300230C240824A34201D1C1
:109750000420F0BD56F82370013743D137185CB2AE
:1097600046F8232087F8304015B9F21882F84800EF
:109770008A78550716D4D70736D5820002F1A04261
:10978000D2F8005725F00205C2F80057224FC5084D
:1097900000F0070C012202FA0CF217F805C042EAA9
:1097A0000C027A558A780D7812F0020225D09B00BF
:1097B00003F1804303F5C0430002D3F8102522F4DF
:1097C000473222F44072C3F810252D04D3F8102537
:1097D00000F4F85005F4403528431043C3F8100551
:1097E0000020B6E70133B1E74D7800F5E0724FF0A5
:1097F000A047AD0047F82250C8E7083C46FA84F479
:1098000094F8500040EA851584F85050E8E70820A5
:109810009FE700BF2C2B0020802B002038B5204C68
:10982000251895F93020072A18DD083A44FA82F401
:1098300094F850309B09032B0BD14FF0A043D3F881
:109840001015C14001F001010231BDE83840FFF7B9
:1098500009BF012B0CBF02210321F6E7D3B2072B6E
:109860001DD8930003F1804303F5C043D3F81005DE
:1098700040F00100C3F8100502F1400040B2800042
:1098800080B2FFF7E3FE51B195F9303054F8233040
:109890002BB1012303FA02F2024BC3F8042338BDB3
:1098A0002C2B0020006000404FF0A043D3F810356F
:1098B00023FA00F000F00100704700002DE9F74F97
:1098C00000244E4D01944FF48072012102F1804337
:1098D00003F5C04390B21B68012B06D1D5F80433C1
:1098E0000B4202D0FFF7B2FE0C430432B2F5907F78
:1098F0004FEA4101EAD1414BD3F87C31012B0CD125
:109900004FF4BE70FFF7A2FE4FF0A04344F00044B6
:10991000D3F820250192C3F82025E3B2D3B1384F04
:1099200000250126344210D0AB0003F1804303F53B
:10993000C043D3F81005D3F8101557F8253023B1DC
:10994000C1F30141C0F3042098470135082D4FEAC7
:109950004606E7D1002C48DA294D4FF0A048294EA1
:109960004FF00009012716F9013B5A1C31D0C3F30F
:10997000C20202A90A44DCB212F8042C03F03F0A26
:1099800003F0070307FA03F31A4222D00AF5E07343
:10999000504658F82330C3F3014BBBF1020F0CBF04
:1099A00003210221FFF75EFE07FA0AF3C8F820350B
:1099B00005EB0A0393F9303055F823304BB1A10978
:1099C000032904D0BBF1020F12D1012901D1504665
:1099D000984709F10109B9F1040FC4D1D8F820352D
:1099E0000193C8F82035002BB9D103B0BDE8F08F42
:1099F000BBF1030FEDD10229E8E700BF0060004092
:109A00002C2B00207C2B0020014B1B68184700BF2B
:109A1000882B00200E4B984237B50C4602D0002010
:109A200003B030BD00230DF107008DF80730FDF7BE
:109A3000FBFC084B1D7915B901221C601A719DF8B9
:109A40000700FDF715FD002DE9D01120E8E700BF64
:109A500000200040882B0020034B984201BF034B9D
:109A600000221A601A71704700200040882B0020E5
:109A70000023435082B043580193019B02B07047CA
:109A80000A4610B54FF48E71FFF7F2FF136A916822
:109A9000C95C136A01331362C0F81C1510BD0000C5
:109AA0000279044B2C2101FB02335869003818BF9E
:109AB00001207047902B00202DE9F84F064690F8C2
:109AC000048089469246FFF7EBFF044600283CD10C
:109AD000204F2C2508FB057B4FF48E71CBF814A08A
:109AE000CBF80890CBF820008BF828003068FFF7FF
:109AF000BFFF3068012383605946FFF7C1FFDBF8E1
:109B000004305D461BBB3068DBF814402B6A9C4276
:109B100011D83368D3F81C21002AFBD00122DA6067
:109B200000202C2303FB087700237B61BDE8F88F1E
:109B300095F828303BB9D0F81C31002BF8D05946A5
:109B4000FFF79EFFE2E70F20EBE71120EEE720464C
:109B5000ECE700BF902B00200023435082B0435815
:109B60000193019B02B070470279044B242101FB51
:109B700002335869003818BF01207047BC2B002001
:109B800001F06043B3F1005F2DE9F04706468846D7
:109B900092463BD190F80490FFF7E6FF0446002878
:109BA00036D11D4F3068242505FB09754FF490719F
:109BB000C5F814A0C5F80880FFF7CEFF4FF4AC71CC
:109BC0003068FFF7C9FF33686A69A968C3F84415AC
:109BD000C3F8482501229A606A68DAB9D3F82021CF
:109BE000D3F858011AB90028F8D00F2007E0002850
:109BF000FBD10122DA60D3F85821002AFBD02423BC
:109C000003FB097700237B61BDE8F0871020FBE7A9
:109C10001120F9E72046F7E7BC2B00207FB5037839
:109C20008DF804304368029383688DF80C30C36864
:109C300004930369064A8DF81430064B01A853F8C3
:109C4000213052F82110984707B05DF804FB00BF9F
:109C5000E02B0020EC2B0020F0B50546174615F848
:109C600004CB124A42F82C70114A42F82C30114BA6
:109C70000C460FCB85B06E4686E80F002368009334
:109C800023798DF8053063798DF80630A368029347
:109C9000002FA389084AADF80C3008BF3A46634646
:109CA0003146284600F036F805B0F0BDEC2B002018
:109CB000E02B00200C2203001D9C0200124BD3F865
:109CC000182182B0EAB10022C3F81821D3F8183164
:109CD0000193019B0D4BD97FFF2907D0987F01226B
:109CE0008A404FF0A04148B1C1F80C2500225A77B4
:109CF0001A72D3E90021064802B01047C1F80825BE
:109D0000F4E702B0704700BF00300040F82B00209D
:109D1000002C00202DE9F74F90F80480644E01924A
:109D20004FF0240909FB08F906EB090B9A469BF84A
:109D30001C3007460C46002B40F0B58005685D4995
:109D40002846FFF767FE002840F0AF80019B46F8E9
:109D50000930CBF804A094F800E094F80CC04FF060
:109D6000A042012303FA0EF3BCF1010F94BFC2F825
:109D70000C35C2F808350EF5E073012142F82310C6
:109D80006378FF2B1FBF9940C2F80C1503F5E071F3
:109D90004FF0030918BF42F82190A27808BF4FF096
:109DA000FF33FF2A1FBF02F5E0714FF0A04A4FF0CA
:109DB000040B4AF821B04FF0240101FB086618BFDC
:109DC000914686F82020E2783949F27708BF4FF0B3
:109DD000FF39FF2A17D094F804A04FF0010B0BFABB
:109DE00002FB4FF0A046BAF1000F4ED0C6F80CB5FA
:109DF00002F5E0724FF0030B46F822B0242202FB7A
:109E0000081282F81EA0C5F808E5C5F80C35A3684D
:109E1000C5F81095C5F82435637B003B18BF0123B6
:109E2000BCF1020F34D0BCF1030F34D0BCF1010FF0
:109E300001D143F00203C5F85435A379C5F8C03504
:109E40000723C5F80035019BABB13B68627943F34A
:109E500007355201002DC3F30733D2B21EDB164C77
:109E6000661986F8002301226D0903F01F0302FA28
:109E700003F344F82530242303FB081100234B7718
:109E800001230B7703B0BDE8F08FC6F808B5AFE744
:109E900043F00403CFE743F00603CCE7074C03F09D
:109EA0000F03E254E7E70820ECE71120EAE700BFE0
:109EB000F82B0020BD9C020000E100E014ED00E062
:109EC00070B50579224C24236B43E35893B10368A2
:109ED0001A0B43F30733002B0CDB02F01F015B0965
:109EE00001228A4020331B4941F82320BFF34F8FC2
:109EF000BFF36F8F24236B43E218E35800687BB1F4
:109F0000154BC0F80833537F53B101234361D0F898
:109F10000431002BFBD0242303FB054300225A7796
:109F2000242303FB0543002693F82030FF2B1FBF9B
:109F300003F5E0734FF0A042022142F82310C0F86D
:109F40000065FFF789FD242303FB0544267770BDD8
:109F5000F82B002000E100E0520108002DE9F34158
:109F60000779474E24237B431446F2180D46517F50
:109F70008646002940F08180F35823B114F0140F75
:109F800004BF0123537795E80F004FF0240C0CFB1E
:109F9000076C0CF10C0888E80F009CF81F20FF2AC2
:109FA00008D09CF81E10012393404FF0A042C1B18D
:109FB000C2F80835296821B101F06043B3F1005FB0
:109FC00006D1AA6882B102F06043B3F1005F0BD002
:109FD000242303FB076600237377102002B0BDE83B
:109FE000F081C2F80C35E5E7DEF800306868C3F8A8
:109FF0004415C3F84805E968C3F834250022C3F8BE
:10A000003815C3F81821D3F818210192019A14F0D9
:10A01000010218BF0122C3F8502514F0020218BF34
:10A020000122C3F8402522075CBF01221A612422C5
:10A030007A43B258B2B9D3F81821002AFBD02423AE
:10A0400003FB0766F27FFF2A07D0B07F012393400E
:10A050004FF0A04218B1C2F80C350020BEE7C2F89C
:10A060000835BBE714F004004FF0400202D0C3F8FB
:10A070000823F2E7C3F80423B0E71120AEE700BFDE
:10A08000F82B002000F1804000F5E040002382B072
:10A09000036003680193019B02B07047F0B5524B17
:10A0A000524CD3F8043185B0002B3DD094F82E20CB
:10A0B0004FF48270FFF7E6FF2AB394F82F3013BBFA
:10A0C000494AD2F80031002B32D04FF48070FFF7AC
:10A0D000D9FF638B94F82D00834250D921891B1A34
:10A0E0009BB289B26383CB1A616801EB4303C2F868
:10A0F0002C36C2F830064FF48270FFF7C3FF3A4B9C
:10A1000001225A6014E0636802932389ADF80C3091
:10A11000E36800218DF8041033BB2374236801A881
:10A120009847002384F82F3094F82E30002BC7D1A5
:10A130002D4BD3F810315BB14FF48870FFF7A2FFBD
:10A140000023237402238DF8043001A82368984764
:10A15000254BD3F81431EBB14FF48A70FFF792FF1F
:10A160000023237405B0F0BD208B608363602081E1
:10A17000E160002AD2D11C4B01221A60CEE7BAD18D
:10A18000E368012184F82F1013B100216183AEE749
:10A190006383B0E766694FF000470125002EE1D0E8
:10A1A000B6FA86F227FA02F34632920026EA03064E
:10A1B00002F1804303F5E0431B68002BEED010460C
:10A1C000A2F58C72FFF75EFFD30882F00402C2F39F
:10A1D00080028DF808308DF8045023688DF809202E
:10A1E00001A89847DAE700BF007000401C2C00204F
:10A1F00038B5204A92F82C300446002B37D1116034
:10A200001D490078C1F8F0056078C1F8F405012512
:10A21000E078137482F82D30536182F82F306FF09C
:10A22000004382F82E0082F82C504FF48270C1F85F
:10A230000833FFF727FF4FF48070FFF723FF4FF439
:10A240008A70FFF71FFFA3780C485B01DBB280F830
:10A250000733802303600223C1F8043392F82E30C1
:10A260000BB1C1F80453C1F80055002038BD0820D7
:10A27000FCE700BF1C2C00200070004000E100E063
:10A2800070B52A4B1A7C02F0FF05002A4BD10A79DF
:10A29000012A9CBF264CC4F8005500F10C0503EBC5
:10A2A0004504247924B993F82D40013483F82D40D6
:10A2B00003EB4503CC790D7A8E781C715D714B7878
:10A2C00036021B0106F4E06603F0300333430E78D8
:10A2D00006F003063343CE78360306F48056334344
:10A2E000160406F4E02633434E798979360506F4E0
:10A2F00080160906334301F080710B430C4901EBD2
:10A300000016000100F1804000F5E040012AC6F887
:10A310001835C0F81455C0F8104502D80123C1F80B
:10A320000035002000E0112070BD00BF1C2C002073
:10A3300000700040054B93F82E30002B14BF002016
:10A34000042000F1804000F5E04070471C2C002004
:10A3500070B5264A264B05461220C2F808031C7C1D
:10A36000022C03D1C2F80403112070BD187C01280F
:10A370001CD1D86818B10223C2F80433F4E7DD60B9
:10A38000198393F82E305BB9D2F80031002BFBD043
:10A390004FF48070FFF776FEC2F82C56C2F83016E4
:10A3A000124B0222C3F804230020DEE7022093F8B8
:10A3B0002E40C2F80403012600201E745D6019813E
:10A3C000D8603CB1598393F82D30C2F82C56C2F8AE
:10A3D0003036CAE7C2F82C564FF48070C2F83016F7
:10A3E000FFF750FE16602046BFE700BF0070004038
:10A3F0001C2C0020F0B51B4F8BB207EB001443EA76
:10A400000243C4F81C35184B40005C6900F1010C94
:10A410004FF0004611F5006F26FA0CF64FF080055C
:10A4200005FA00F50BBFB44334435C615C610CBFBB
:10A43000C7F80853C7F8045340244FF00045596942
:10A44000844025FA00F040F2FF75AA42054A0BBF8E
:10A4500081430143596159610CBFC2F80843C2F8F6
:10A460000443F0BD007000401C2C002010B5124BBE
:10A470001A7CF2B900F10C0103EB4102127922B10E
:10A4800093F82D20013A83F82D2003EB410300249B
:10A490009C80030103F1804303F5E0430749C3F8BF
:10A4A000144540F2FF72C3F81045FFF7A3FF2046A2
:10A4B00010BD1120FCE700BF1C2C002000F8FFFF9E
:10A4C00038B5144B6FF00042C3F80823124A8021BC
:10A4D000C2F88010BFF34F8FBFF36F8F01229A60D5
:10A4E00042F21072D3F8141109B9013AFAD10B4DA6
:10A4F0000024C3F800452C7405EB44031B7F13B103
:10A50000E0B2FFF7B3FF0134082CF5D1002385F842
:10A510002C3038BD0070004000E100E01C2C002011
:10A520002DE9F347002406460F46904600F5A07536
:10A530004FF48039A2462B688BB1D6F8043309FA60
:10A5400004F21A420BD0C5F800A02B680193A000BA
:10A55000019B00F5A07398B2D7E900319847013408
:10A56000444505F10405E6D102B0BDE8F0870000DE
:10A57000F7B506792F4D0C237343EF183C7A002C66
:10A5800055D1EA504B687B60477903682246A44660
:10A59000D4B2A7423CD8CA7843F307345201002C06
:10A5A000C3F30733D2B23DDB234F07EB040C8CF827
:10A5B00000230122640903F01F0302FA03F347F8A2
:10A5C000243003684A78D3F8040502F0030220F02F
:10A5D00003000243C3F80425D3F808058A7820F065
:10A5E000030002F003020243C3F80825D3F8100564
:10A5F0000A7820F00F0102F00F020A43C3F8102579
:10A600000C2303FB065501232B72002003B0F0BD81
:10A61000940004F5A074013243F804C01C5901945D
:10A62000019CB5E7054C03F00F03E254C9E708208D
:10A63000ECE700BF4C2C002000E100E014ED00E04E
:10A64000036801221A600279034B0C2101FB0233DB
:10A6500002221A72704700BF4C2C002003680122AE
:10A660001A610179024B0C2000FB01331A7270470A
:10A670004C2C002038B503681A0B43F30733002B2A
:10A6800004460CDB02F01F015B0901228A402033E3
:10A690000D4941F82320BFF34F8FBFF36F8F23681D
:10A6A0000025D3F80022C3F800524FF0FF32C3F860
:10A6B00008232046FFF7D2FF2279044B0C2101FB2F
:10A6C00002331D7238BD00BF00E100E04C2C0020B9
:10A6D00037B54FF4803400688C407BB18B0003F5B4
:10A6E000A0730025C550C3580193019BC0F80443D3
:10A6F00001F5A87140F8212003B030BDC0F808432F
:10A70000F6E770B4046840F20116D4F800528E40A7
:10A7100025EA0605C4F80052D4F800522B43C4F8C9
:10A7200000329DF80C3070BCFFF7D2BF02490348DD
:10A730000422FFF7F5BE00BF4C2C002000A0004013
:10A74000024903480622FFF7EBBE00BF582C002049
:10A7500000A0014070B5104C104BC4F80835002221
:10A760000F2301251646D1B205FA01F0184218BF91
:10A7700001F5007102F1010218BF44F82160834322
:10A78000F1D1074A13685B0C5B041360054A137828
:10A7900023F00F03137070BD00F00140FFFF0100B4
:10A7A000642C0020682C00202DE9F74F4FF00009A1
:10A7B000154D164F06464FF0040AC8465FFA89FB4E
:10A7C00001240DF1070004FA0BF48DF80780FCF763
:10A7D0002BFE2C4208D03B6814EA030201BF23433E
:10A7E0003B6086F800B092469DF80700FCF740FEFB
:10A7F000BAF1000F03D0A54309F10109DED150469B
:10A8000003B0BDE8F08F00BFFFFF0100642C002003
:10A8100010B5A1B19AB101238340C3F3100484B1F0
:10A820000A4C246823420ED0C00000F1804000F59D
:10A83000F830C0F81015C0F81425002010BD0E2007
:10A84000FCE70720FAE70820F8E700BF642C0020A7
:10A85000012202FA00F3580C400440B91BB1064A29
:10A860001268134205D0054AC2F804357047072024
:10A8700070470820704700BF642C002000F00140A2
:10A88000012202FA00F3580C400440B91BB1064AF9
:10A890001268134205D0054AC2F8083570470720F0
:10A8A00070470820704700BF642C002000F0014072
:10A8B000034B187810B901221A7070478520704731
:10A8C000692C002010B5054B1A782AB100241C70A1
:10A8D000FFF740FF204610BD0820FCE7692C002050
:10A8E0000023435082B043580193019B02B070474C
:10A8F0002DE9F041224E234FDFF88C8000244FF4E5
:10A900008035D7F80433A6F580412B4289B20CD0AC
:10A91000336853B1C7F848533846C7F80853FFF7B0
:10A92000DFFFD8F80030E0B298470134042C4FEA3A
:10A93000450506F10406E4D11248D0F80433DA07DD
:10A940000AD5D0F800313BB14FF48071FFF7C8FF52
:10A950000D4B20461B6898470A48D0F804339B07E4
:10A960000CD5D0F804314BB14FF48271FFF7B8FF2A
:10A97000054BBDE8F0411B6805201847BDE8F08194
:10A9800040410240004002406C2C00200220FEF7B3
:10A99000C6BC0000034B1B7813B10020FEF7ADBC12
:10A9A000FEF7B1BC712C0020F8B57A4C237805462F
:10A9B0001BB100232370FFF7EDFF172D00F28780F6
:10A9C000DFE805F00C1717425364757F878C878C7E
:10A9D000949999999999C3C8D0D8E3E3FFF7DAFF1E
:10A9E0006D48FCF710FC6D4B002204461A7020469F
:10A9F000F8BD0020FEF774FCE0B10020FEF77DFCFE
:10AA0000022D1ED14FF4FA74644B1D7000254FF4D3
:10AA100000464FF4FA7029464FF47A720023E4FBA3
:10AA2000060106F05AF92A460146BDE8F8405A48A0
:10AA3000FCF7D1BBFEF75BFC022DE3D04FF4C874EA
:10AA4000E2E74FF47A64DFE70020FEF749FC40B10B
:10AA50000020FEF752FC4FF44874504B03221A704A
:10AA6000D4E7FEF744FCC824F7E70020FEF738FCE3
:10AA700038B10020FEF741FC4FF47A64474B0422C2
:10AA8000EDE7FEF734FC4FF4C874F7E70020FEF75B
:10AA900027FC48B10020FEF730FC404B05221A701D
:10AAA00041F69A110022C0E7FEF721FCF5E70020ED
:10AAB000FEF735FC394B06221A70002240F6CD41D4
:10AAC000B3E70020FEF713FC344B07221A70002472
:10AAD0008DE701202070FEF722FCEEE701202070B8
:10AAE000FEF71DFC00224FF480419EE7FEF711FCAB
:10AAF0002A4B0C22EAE72A482A4EFCF784FBD5F1C0
:10AB0000110504461CD0D8B9012D13D0C8204543E7
:10AB100021464FF400474FF4FA704FF47A72002345
:10AB2000C5FB070106F0D9F8224601461C48FCF790
:10AB300052FB04460220FEF7DAFB0123337056E78E
:10AB40000220FEF7DAFB0023F8E7FFF723FF134BA1
:10AB50001222BBE7FFF71EFF0020FEF7C8FB0F4BDA
:10AB60001322B3E7FFF716FF0120FEF7C0FB0B4BE4
:10AB70001422ABE7FFF70EFF0020FEF7B8FB012021
:10AB8000FEF7B5FB054B1522A0E7FEF7C2FB034B12
:10AB90001D709CE7E02C0020B82C0020E82C002041
:10ABA000782C0020712C0020044B1B68DB0703D598
:10ABB000034B1878FFF7F8BE704700BFDC2C00206D
:10ABC000E82C00202DE9F04106460C46FEF7BCFBC0
:10ABD00068B9012C0DD0022C25D044B91348FCF7DC
:10ABE00012FB134B9C78134B1B78A34211D0BDE88A
:10ABF000F0810F4D6B782C7843B10F4F0B483A46DC
:10AC00004FF40041FCF7E7FA00B93E70094BAA780F
:10AC10001A70002CEBD0094B1B68002BE7D02046A4
:10AC2000BDE8F0411847024B5C78F2E7982C002011
:10AC3000D82C0020E92C0020702C0020E42C0020CF
:10AC400000780221FFF7BEBF08B9FEF776BB0020EF
:10AC500070470000044B1B6813F0010301D0FFF79D
:10AC6000A3BE1846704700BFDC2C002038B5194B36
:10AC70001860194B10F002040546196014D0174BE8
:10AC800017480E221A70012140F26662FCF716F98D
:10AC9000044648B9FCF76AF9044628B90146114A46
:10ACA0001148FCF78DFA0446EB0711D50120FEF799
:10ACB00050FB6CB921460D4A0D48FCF781FA044659
:10ACC00030B9BDE838400B4A0B480121FCF778BA8F
:10ACD000204638BDDC2C0020E42C0020D82C00209D
:10ACE0003822030041AC020044220300A9AB020059
:10ACF000482203008DA902004022030038B9012A2E
:10AD000007D101290AD00246022909D059B10720EA
:10AD100070470129F8D1054B1A7070470E22FAE7E7
:10AD2000024B5A707047014B9A707047D82C002024
:10AD300008B5012202210020FFF7E0FF08B1072833
:10AD400010D1072202210120FFF7D8FF08B1072800
:10AD500008D100210A220846FFF7D0FF10B10728CA
:10AD600008BF002008BD00000388102B10B502D0DA
:10AD7000112B1ED010BD1A4C2168B1B90122084612
:10AD8000FFF7BCFF08B1072824D1072202210120C8
:10AD9000FFF7B4FF08B107281CD1042202210020CC
:10ADA000FFF7ACFF08B1072814D1236801332360F3
:10ADB000E0E70B4A1368013B1360002BDAD1FFF781
:10ADC000B7FF0028D6D0074B1B68002BD2D0BDE8B8
:10ADD00010401847034B1B68002BE6D09847E4E768
:10ADE000F02C0020EC2C00206DDF704776DF7047E0
:10ADF0007ADF70477CDF70477FDF70478FDF7047F7
:10AE0000B1DF704766DF704770470000014B0122D9
:10AE10001A7070474C350020FCF7BEB810B50378A7
:10AE200004460BBB40680521FFF792FA08B1FCF716
:10AE3000B3F862680023911E083231F9020F8A428A
:10AE40000344FAD110490A6801320A600F49052209
:10AE500093FBF2F20A800E4A12783AB1052293FB74
:10AE6000F2F30C4A136010BD0023F4E70A490B68A3
:10AE70000A2BF8DC05480A22048808485A430133A3
:10AE800020F812400B60EEE7F42C00201433002071
:10AE900019350020DC34002010330020243300203A
:10AEA00008B5064B1878FFF7EBFC054B00221A702B
:10AEB00018B1BDE80840FCF76FB808BD00330020AA
:10AEC000193500201FB5FFF7F3FC08B1FCF764F853
:10AED000174A18480023CDE9022302A9164AFFF7B2
:10AEE00047FB08B1FCF758F8144B1548D3F8102568
:10AEF0000021D2B220FA02F2009101230D48FFF79F
:10AF000000FC0C48FFF79CFBFFF714FA04460D48C1
:10AF1000FFF74AFC08B1FCF73FF80A4B0A491878DA
:10AF20002246FFF775FC08B1FCF736F804B010BDF7
:10AF300000000306BC26030009AE020000A0014089
:10AF400000C409000033002040A1014008B5054BB2
:10AF50001878FFF77DFC18B1BDE80840FCF71CB875
:10AF600008BD00BF00330020162808B502D01728FE
:10AF700016D008BD1849002001F05AF9174B1B786C
:10AF8000002BF6D0164B174800224FF400411A60F0
:10AF9000FCF721F90028ECD0BDE80840FBF7FCBF26
:10AFA0001149002001F044F90C4B18780C4B50B9B2
:10AFB0001B68022BDDDC0D4901F03AF9BDE80840C1
:10AFC0000320FDF701B81A68022AD2DC00220548E6
:10AFD0001A60FCF718F9DDE74C2203001835002051
:10AFE00050350020E03200205D2203006F22030074
:10AFF00070B5224C224E2268224901320020226084
:10B0000001F016F93578236805BB022B11DD2846BF
:10B01000FFF71AFE68B11C49284601F009F91B48E0
:10B020002560FCF7F0F808B1FBF7B6FF0123337099
:10B0300070BD0020FFF708FE0028F9D1144901F087
:10B04000F7F8BDE870400320FCF7BEBF022BEFDD30
:10B050000020FFF7F9FD0028EAD00020FEF74DF9A7
:10B060000C49002001F0E4F80320FCF7ADFFBDE837
:10B0700070400949002001F0DBB800BF50350020C6
:10B080001835002098220300A7220300E032002098
:10B09000D92203000D230300412303000388212B41
:10B0A00013B5044641D00DD8012B00F08380103B2E
:10B0B0009AB2052A0DD8052B0BD8DFE803F010242F
:10B0C0000A480A70522B57D005D83B2B5ED0512B23
:10B0D0006CD002B010BD562BFBD1394957E039492D
:10B0E000002001F0A5F8384BA1883848198002F0FB
:10B0F00069FA08B1FBF750FF0720FFF7ABFD344BAF
:10B1000001221A70E5E73349002001F091F82E4B37
:10B110004FF6FF721A80FFF7C3FE2F4A0023136019
:10B120002E4A13602A4A1370D3E72D49002001F0FC
:10B130007FF80023A0888DF8003069468DF8013033
:10B14000FFF75CFE0028C4D0FBF726FFC1E71E48CE
:10B1500000231A4685210088FFF74EFE2149044648
:10B160000246002001F064F8002CB2D0204602B064
:10B17000BDE81040FBF710BF1348002300881A46B3
:10B180001946FFF73DFE0028A3D0F0E7164900203E
:10B1900001F04EF8A0881321FFF728FEF3E700F135
:10B1A00008010622684605F020FF92E70F490020BB
:10B1B00001F03EF8044B00211888FFF723FEE2E778
:10B1C000CD23030059230300322300200433002041
:10B1D0000035002064230300D432002058320020C0
:10B1E0007223030087230300B7230300E323030034
:10B1F00010B5044602780849002001F019F82378B8
:10B200004BB9064B3B211888FFF7F0FD18B1BDE89C
:10B210001040FBF7C1BE10BD0824030032230020FC
:10B2200008B5B8B103281DD10F4B10481049C01AFA
:10B23000C008000440F00300FBF7C2FB0C490020EB
:10B2400000F0F6FF0220FFF705FD58B1BDE8084009
:10B25000FBF7A2BE074900F0EBFFBDE80840032062
:10B26000FCF7B2BE08BD00BF301803008018030011
:10B2700022240300342403002DE9F8430478064611
:10B2800084BB234D234BDFF89880DFF89890ED1AAC
:10B29000ED082D0445F00105B28A94420AD33369C2
:10B2A000134413F8013C0D2B2FD10A20FCF794F81E
:10B2B0001128F9E73369185DFCF78EF83369074602
:10B2C0001A5D4146002000F0B3FF4FB1112FF1D0BD
:10B2D00028463A464946FBF777FB3846FBF75CFEC3
:10B2E0000134D9E7022C06D10B4B01221A60BDE8CC
:10B2F000F843FFF72BBE032C07D1074B00221A603F
:10B30000FFF7CEFD054B01221A70BDE8F88300BFA0
:10B3100080180300301803001C3500202035002061
:10B32000B3230300462403004FF0A0430322C3F8D5
:10B330000827D3F80425D14301F0040102F00402E8
:10B34000C3F80815C3F80C257047000038B5054D43
:10B35000044645F001054FF47A40A847013CFAD174
:10B3600038BD00BFB026030008B1FFF7EFBF70473C
:10B37000B0B503F1080084B06C46C008A4EBC0006F
:10B3800000AF8546013A8DF8001001218B4214DA96
:10B390000133DBB2394638607B600125094B0A482E
:10B3A000BB600022FD60FEF7D9FD04462846FFF78A
:10B3B000CDFF60B21037BD46B0BD12F8014F445406
:10B3C0000131E3E758230020CC2603000A8810B59A
:10B3D00000200C460F4900F02BFF0F4B62881B88A2
:10B3E0009A4216D1228840F677239A4211D1A38837
:10B3F0000A4A0B480B49033B9BB213800A4A801A46
:10B40000C0080004BDE810401A4640F00300FBF7F6
:10B41000E4BA10BD71240300322300203023002041
:10B42000801803008924030030180300FBF7B4BD23
:10B430002DE9F0431E4687B008331546DB086A46FF
:10B44000A2EBC30300AF01249D46FB1DBB60331973
:10B45000DBB20022F9710F487B6107F10801FC6043
:10B46000C7F810D0FEF77AFD80462046FFF76EFF42
:10B47000E946691E2246964205DA4FFA88F01C37E3
:10B48000BD46BDE8F08319F8023001F8013F0132F2
:10B49000F1E700BFCC2603001FB5144A10685168BD
:10B4A000127A01AB03C312491A70124801238DF8B6
:10B4B0000730FEF79DFE08B1FBF76EFD01A90020E5
:10B4C000FEF7DEFE08B1FBF767FD0B480521FEF72E
:10B4D0003FFF08B1FBF760FD08480521FEF738FF84
:10B4E00008B1FBF759FD05B05DF804FB80260300A9
:10B4F0001DAE0200A4260300443200204E3200207C
:10B500001FB51A4B01221A70194AD2F80900D2F855
:10B510000D10527C01AB03C3164917481A70FEF791
:10B5200067FE08B1FBF738FD01A90020FEF7A8FE71
:10B5300008B1FBF731FD11480521FEF709FF08B1FD
:10B54000FBF72AFD0E480521FEF702FF08B1FBF7C5
:10B5500023FDFFF7B7FC6420FFF7F8FEFFF7F6FCCA
:10B560006420FFF7F3FE05B05DF804FB19350020F9
:10B57000802603001DAE0200A426030044320020F2
:10B580004E32002010B51B4C1B492268002000F0F1
:10B590004FFE94ED007ADFED197ADFED196A194953
:10B5A000B8EEC77A002037EE677AC7EE267A9FEDAD
:10B5B000167A67EE877AFDEEE77A17EE902A17EE95
:10B5C000904A00F035FE114B1968A1420ADB002CAD
:10B5D00007DC052119600022C9B20D4804F0FCFC0B
:10B5E00003E0214600291960F5DCBDE81040642025
:10B5F000FFF7ACBEDC340020B32303000080A2447C
:10B6000000002F44A62403000000C8425C23002051
:10B610002C31002008B5FFF743FCFFF753F90C4825
:10B62000FFF71CF80A48FFF725F8FEF749FF094B1A
:10B630000222C3F80823084B8022C3F88021074B5D
:10B6400000221A70BDE808406420FFF77FBE00BFEB
:10B65000BC2603000070004000E100E01935002026
:10B6600008B50849084801F091FE08B1FBF794FCC1
:10B670000548172101F09DFE18B1BDE80840FBF711
:10B680008BBC08BDCDB30200C0320020000000001A
:10B690002DE9F04F2DED028B4FF40041C1B0002099
:10B6A000FAF7F4FF08B1FBF777FCFAF72DFFFDF787
:10B6B0008DFE08B1FBF770FC0020FDF7ABFEFDF737
:10B6C0002FFF0028FBD0FBF749FD7F4A7F4801216F
:10B6D000FBF776FD7E4A7F480121FBF771FD08B13B
:10B6E000FBF75AFCFCF732FC08B1FBF755FC7A4932
:10B6F0000320FFF7BBFA08B1FBF74EFC162201212D
:10B700000020FFF7FBFA08B1FBF746FC00211722E7
:10B710000846FFF7F3FA08B1FBF73EFC6F4D704E99
:10B7200095E80F0015AC84E80F006E4B15936E4A38
:10B730006E4800232146FEF78FFA6D4B0695F61AE8
:10B74000F608360446F00306074620B1024669496A
:10B750003046FBF739F9684DDFF8CC91DFF8CCA122
:10B76000DFF8CCB1C5F81C9001234FF00008284643
:10B77000AB7085F80180C5F820A0C5F824B005F0AD
:10B780007BF812232B71284614232B7305F0AAF89B
:10B790005A490246404600F04BFD5948FEF790FBDF
:10B7A00027B158493A463046FBF70EF90020FFF71B
:10B7B0004BFA002872D1544900F03AFD0420FCF7FE
:10B7C00003FC9FED3F8BDFF86C810027002F40F0DA
:10B7D000E0814E4B1F78002F00F0DB814C490020A8
:10B7E00000F026FD4B49002000F022FD04F0BEFDD4
:10B7F00008B1FBF7D1FB002321460120159304F08B
:10B8000081FE08B1FBF7C8FB204604F02DFF08B10C
:10B81000FBF7C2FB0CA8FFF7E7FA9DF8363004935C
:10B820009DF8353003939DF8343002939DF8333002
:10B8300001939DF83230384A00930D219DF8313044
:10B84000204605F07BFB234622460621107892F81D
:10B8500001C082F800C00139507002F10202F5D136
:10B860000DF15F022146062091F800C092F800E039
:10B8700001F801EB013802F801C9F5D12749079316
:10B88000224600F0D5FC079B0C2113F8012B392A26
:10B8900000F29281152A4FD8243252E0204900202C
:10B8A00000F0C6FC1F4800224FF40041FBF793FC58
:10B8B000002886D0FBF770FB83E700BFAFF3008062
:10B8C00055AA55AA5500000029B30200C42603005A
:10B8D000F1AF0200B826030069AF0200942603000E
:10B8E000801803000E0C090F0DAE0200C8260300DD
:10B8F00030180300C024030024350020E224030094
:10B90000CC26030003250300812203001835002004
:10B910003F2503006925030087250300A0250300B8
:10B9200027250300E032002031B4020071B3020089
:10B9300069B3020020350020A2F11600192802D8B0
:10B940004B3203F8012C01399FD1A74A5168106886
:10B9500011AB03C306220AA9A05C01F8010B013256
:10B960000C2AF9D1082211A9A04805F013FB0AAB53
:10B97000194606229D4805F0F5FA11239B488DF8DB
:10B98000443005F0B0FB994982B211A8FFF732FAB2
:10B9900008B1FBF701FB08220021204605F04EFB11
:10B9A0001423ADF854301C23ADF856300423ADF801
:10B9B000583020464FF4C873ADF85A30FFF718FAE4
:10B9C00008B1FBF7E9FAFFF74BFE0021102211A89E
:10B9D0000A9105F033FB0021012311918DF84830C5
:10B9E0001391834B8348149311A904F081FA08B191
:10B9F000FBF7D2FA40220021204605F01FFB01236D
:10BA00007D498DF89030204601F07CFB19A87B49D8
:10BA100001F078FB0CAB20468DED0C8B219304F0EC
:10BA200071FB08B1FBF7B8FA754B76480A930AA97F
:10BA300001F0B6FD08B1FBF7AFFA0021042209A816
:10BA400005F0FCFA704B7148099309A904F076F9E6
:10BA500008B1FBF7A1FAAC220021204605F0EEFA6E
:10BA600002238DF854304FF4A063ADF85630012313
:10BA70004021ADF8A0308DF8D03044F25063CDE9CC
:10BA80003713634A634B6448299221463E9300F082
:10BA900071FE08B1FBF780FA5F48012100F067FEF4
:10BAA0001C220021204605F0C9FA00234FF4203261
:10BAB000CDE91532ADF862304FF470228DF8643064
:10BAC000564B17921A930322554B8DF8602020464F
:10BAD0001B9301F011F908B1FBF75EFA069B0FCB3F
